{
  "contractName": "Auction",
  "abi": [
    {
      "anonymous": false,
      "inputs": [
        {
          "indexed": false,
          "internalType": "string",
          "name": "_auction_id",
          "type": "string"
        },
        {
          "indexed": false,
          "internalType": "address",
          "name": "_owner",
          "type": "address"
        },
        {
          "components": [
            {
              "internalType": "string",
              "name": "product_name",
              "type": "string"
            },
            {
              "internalType": "uint256",
              "name": "base_price",
              "type": "uint256"
            }
          ],
          "indexed": false,
          "internalType": "struct Auction.product",
          "name": "_product",
          "type": "tuple"
        }
      ],
      "name": "AuctionAlreadyAdded",
      "type": "event"
    },
    {
      "anonymous": false,
      "inputs": [
        {
          "indexed": false,
          "internalType": "string",
          "name": "_auction_id",
          "type": "string"
        },
        {
          "indexed": false,
          "internalType": "address",
          "name": "_owner",
          "type": "address"
        },
        {
          "components": [
            {
              "internalType": "string",
              "name": "product_name",
              "type": "string"
            },
            {
              "internalType": "uint256",
              "name": "base_price",
              "type": "uint256"
            }
          ],
          "indexed": false,
          "internalType": "struct Auction.product",
          "name": "_product",
          "type": "tuple"
        },
        {
          "indexed": false,
          "internalType": "uint256",
          "name": "_starting_time",
          "type": "uint256"
        },
        {
          "indexed": false,
          "internalType": "uint256",
          "name": "_auction_time",
          "type": "uint256"
        }
      ],
      "name": "AuctionStarted",
      "type": "event"
    },
    {
      "anonymous": false,
      "inputs": [
        {
          "indexed": false,
          "internalType": "string",
          "name": "_message",
          "type": "string"
        }
      ],
      "name": "RevertMessage",
      "type": "event"
    },
    {
      "inputs": [
        {
          "internalType": "string",
          "name": "",
          "type": "string"
        }
      ],
      "name": "auctions",
      "outputs": [
        {
          "internalType": "string",
          "name": "auction_id",
          "type": "string"
        },
        {
          "components": [
            {
              "internalType": "string",
              "name": "product_name",
              "type": "string"
            },
            {
              "internalType": "uint256",
              "name": "base_price",
              "type": "uint256"
            }
          ],
          "internalType": "struct Auction.product",
          "name": "listed_product",
          "type": "tuple"
        },
        {
          "internalType": "bool",
          "name": "started",
          "type": "bool"
        },
        {
          "internalType": "uint256",
          "name": "auction_time",
          "type": "uint256"
        },
        {
          "internalType": "uint256",
          "name": "end_time",
          "type": "uint256"
        },
        {
          "internalType": "address payable",
          "name": "owner",
          "type": "address"
        },
        {
          "internalType": "uint256",
          "name": "highest_bid",
          "type": "uint256"
        },
        {
          "internalType": "address payable",
          "name": "highest_bidder",
          "type": "address"
        },
        {
          "internalType": "bool",
          "name": "ended",
          "type": "bool"
        }
      ],
      "stateMutability": "view",
      "type": "function",
      "constant": true
    },
    {
      "inputs": [
        {
          "internalType": "string",
          "name": "",
          "type": "string"
        },
        {
          "internalType": "address",
          "name": "",
          "type": "address"
        }
      ],
      "name": "withdrawals",
      "outputs": [
        {
          "internalType": "uint256",
          "name": "",
          "type": "uint256"
        }
      ],
      "stateMutability": "view",
      "type": "function",
      "constant": true
    },
    {
      "inputs": [
        {
          "internalType": "string",
          "name": "_auction_id",
          "type": "string"
        },
        {
          "internalType": "string",
          "name": "_product_name",
          "type": "string"
        },
        {
          "internalType": "uint256",
          "name": "_base_price",
          "type": "uint256"
        },
        {
          "internalType": "uint256",
          "name": "_auction_time",
          "type": "uint256"
        }
      ],
      "name": "createAuction",
      "outputs": [],
      "stateMutability": "nonpayable",
      "type": "function"
    },
    {
      "inputs": [
        {
          "internalType": "string",
          "name": "_auction_id",
          "type": "string"
        }
      ],
      "name": "startAuction",
      "outputs": [],
      "stateMutability": "nonpayable",
      "type": "function"
    },
    {
      "inputs": [
        {
          "internalType": "string",
          "name": "_auction_id",
          "type": "string"
        }
      ],
      "name": "makeBid",
      "outputs": [],
      "stateMutability": "payable",
      "type": "function",
      "payable": true
    },
    {
      "inputs": [
        {
          "internalType": "string",
          "name": "_auction_id",
          "type": "string"
        }
      ],
      "name": "withdrawBid",
      "outputs": [],
      "stateMutability": "nonpayable",
      "type": "function"
    },
    {
      "inputs": [
        {
          "internalType": "string",
          "name": "_auction_id",
          "type": "string"
        }
      ],
      "name": "approveProduct",
      "outputs": [],
      "stateMutability": "nonpayable",
      "type": "function"
    },
    {
      "inputs": [
        {
          "internalType": "string",
          "name": "_auction_id",
          "type": "string"
        }
      ],
      "name": "getAuctionDetails",
      "outputs": [
        {
          "components": [
            {
              "internalType": "string",
              "name": "auction_id",
              "type": "string"
            },
            {
              "components": [
                {
                  "internalType": "string",
                  "name": "product_name",
                  "type": "string"
                },
                {
                  "internalType": "uint256",
                  "name": "base_price",
                  "type": "uint256"
                }
              ],
              "internalType": "struct Auction.product",
              "name": "listed_product",
              "type": "tuple"
            },
            {
              "internalType": "bool",
              "name": "started",
              "type": "bool"
            },
            {
              "internalType": "uint256",
              "name": "auction_time",
              "type": "uint256"
            },
            {
              "internalType": "uint256",
              "name": "end_time",
              "type": "uint256"
            },
            {
              "internalType": "address payable",
              "name": "owner",
              "type": "address"
            },
            {
              "internalType": "uint256",
              "name": "highest_bid",
              "type": "uint256"
            },
            {
              "internalType": "address payable",
              "name": "highest_bidder",
              "type": "address"
            },
            {
              "internalType": "bool",
              "name": "ended",
              "type": "bool"
            }
          ],
          "internalType": "struct Auction.auction",
          "name": "",
          "type": "tuple"
        }
      ],
      "stateMutability": "view",
      "type": "function",
      "constant": true
    },
    {
      "inputs": [],
      "name": "getContractBalance",
      "outputs": [
        {
          "internalType": "uint256",
          "name": "",
          "type": "uint256"
        }
      ],
      "stateMutability": "view",
      "type": "function",
      "constant": true
    }
  ],
  "bytecode": "0x608060405234801561001057600080fd5b50612414806100206000396000f3fe6080604052600436106100865760003560e01c80639d9a1c99116100595780639d9a1c99146101455780639e25249e14610161578063afca67061461018a578063b76b1618146101b3578063d65f8a98146101f857610086565b80632b00ee121461008b57806361e2db55146100c85780636f9fb98a146100f157806373dc756c1461011c575b600080fd5b34801561009757600080fd5b506100b260048036038101906100ad9190611670565b610235565b6040516100bf91906118b6565b60405180910390f35b3480156100d457600080fd5b506100ef60048036038101906100ea9190611904565b6104b0565b005b3480156100fd57600080fd5b506101066107ea565b60405161011391906119b2565b60405180910390f35b34801561012857600080fd5b50610143600480360381019061013e9190611670565b6107f2565b005b61015f600480360381019061015a9190611670565b6109f9565b005b34801561016d57600080fd5b5061018860048036038101906101839190611670565b610e0a565b005b34801561019657600080fd5b506101b160048036038101906101ac9190611670565b610fed565b005b3480156101bf57600080fd5b506101da60048036038101906101d59190611670565b611253565b6040516101ef99989796959493929190611a72565b60405180910390f35b34801561020457600080fd5b5061021f600480360381019061021a9190611b4b565b61143f565b60405161022c91906119b2565b60405180910390f35b61023d61147a565b60018260405161024d9190611be3565b90815260200160405180910390206040518061012001604052908160008201805461027790611c29565b80601f01602080910402602001604051908101604052809291908181526020018280546102a390611c29565b80156102f05780601f106102c5576101008083540402835291602001916102f0565b820191906000526020600020905b8154815290600101906020018083116102d357829003601f168201915b505050505081526020016001820160405180604001604052908160008201805461031990611c29565b80601f016020809104026020016040519081016040528092919081815260200182805461034590611c29565b80156103925780601f1061036757610100808354040283529160200191610392565b820191906000526020600020905b81548152906001019060200180831161037557829003601f168201915b5050505050815260200160018201548152505081526020016003820160009054906101000a900460ff1615151515815260200160048201548152602001600582015481526020016006820160009054906101000a900473ffffffffffffffffffffffffffffffffffffffff1673ffffffffffffffffffffffffffffffffffffffff1673ffffffffffffffffffffffffffffffffffffffff168152602001600782015481526020016008820160009054906101000a900473ffffffffffffffffffffffffffffffffffffffff1673ffffffffffffffffffffffffffffffffffffffff1673ffffffffffffffffffffffffffffffffffffffff1681526020016008820160149054906101000a900460ff1615151515815250509050919050565b600073ffffffffffffffffffffffffffffffffffffffff166001856040516104d89190611be3565b908152602001604051809103902060060160009054906101000a900473ffffffffffffffffffffffffffffffffffffffff1673ffffffffffffffffffffffffffffffffffffffff16146105c6577f3a7ede679b7a41edd46d102a18c22ea7c7961bad08b3c780647274b68463a9f0846001866040516105579190611be3565b908152602001604051809103902060060160009054906101000a900473ffffffffffffffffffffffffffffffffffffffff166001876040516105999190611be3565b90815260200160405180910390206001016040516105b993929190611dcc565b60405180910390a1600080fd5b836001856040516105d79190611be3565b908152602001604051809103902060000190816105f49190611f9e565b50826001856040516106069190611be3565b908152602001604051809103902060010160000190816106269190611f9e565b5066038d7ea4c680008261063a919061209f565b60018560405161064a9190611be3565b90815260200160405180910390206001016001018190555060006001856040516106749190611be3565b908152602001604051809103902060030160006101000a81548160ff021916908315150217905550806001856040516106ad9190611be3565b908152602001604051809103902060040181905550336001856040516106d39190611be3565b908152602001604051809103902060060160006101000a81548173ffffffffffffffffffffffffffffffffffffffff021916908373ffffffffffffffffffffffffffffffffffffffff16021790555060006001856040516107349190611be3565b908152602001604051809103902060070181905550600060018560405161075b9190611be3565b908152602001604051809103902060080160006101000a81548173ffffffffffffffffffffffffffffffffffffffff021916908373ffffffffffffffffffffffffffffffffffffffff16021790555060006001856040516107bc9190611be3565b908152602001604051809103902060080160146101000a81548160ff02191690831515021790555050505050565b600047905090565b3373ffffffffffffffffffffffffffffffffffffffff166001826040516108199190611be3565b908152602001604051809103902060060160009054906101000a900473ffffffffffffffffffffffffffffffffffffffff1673ffffffffffffffffffffffffffffffffffffffff161415806108a057506001151560018260405161087d9190611be3565b908152602001604051809103902060030160009054906101000a900460ff161515145b156108aa57600080fd5b600180826040516108bb9190611be3565b908152602001604051809103902060030160006101000a81548160ff0219169083151502179055506001816040516108f39190611be3565b9081526020016040518091039020600401544261091091906120e1565b6001826040516109209190611be3565b9081526020016040518091039020600501819055507f9d16eb35a2116e4e6b259561930fbe91a74e2f07b801a1e889c9e63ea042d0a2816001836040516109679190611be3565b908152602001604051809103902060060160009054906101000a900473ffffffffffffffffffffffffffffffffffffffff166001846040516109a99190611be3565b9081526020016040518091039020600101426001866040516109cb9190611be3565b9081526020016040518091039020600401546040516109ee959493929190612115565b60405180910390a150565b600181604051610a099190611be3565b908152602001604051809103902060050154421115610a5c5760018082604051610a339190611be3565b908152602001604051809103902060080160146101000a81548160ff0219169083151502179055505b60001515600182604051610a709190611be3565b908152602001604051809103902060030160009054906101000a900460ff1615151480610acf575060011515600182604051610aac9190611be3565b908152602001604051809103902060080160149054906101000a900460ff161515145b15610b0e577fc312295635bf1b7a5382960de2df3187c6947a801b656f2c29f770fc92f53da0604051610b01906121e8565b60405180910390a1600080fd5b60008082604051610b1f9190611be3565b908152602001604051809103902060003373ffffffffffffffffffffffffffffffffffffffff1673ffffffffffffffffffffffffffffffffffffffff1681526020019081526020016000205434610b7691906120e1565b90506000600183604051610b8a9190611be3565b908152602001604051809103902060070154148015610bcc5750600182604051610bb49190611be3565b90815260200160405180910390206001016001015481105b80610bf75750600182604051610be29190611be3565b90815260200160405180910390206007015481105b15610c36577fc312295635bf1b7a5382960de2df3187c6947a801b656f2c29f770fc92f53da0604051610c299061227a565b60405180910390a1600080fd5b600073ffffffffffffffffffffffffffffffffffffffff16600183604051610c5e9190611be3565b908152602001604051809103902060080160009054906101000a900473ffffffffffffffffffffffffffffffffffffffff1673ffffffffffffffffffffffffffffffffffffffff1614610d8057600182604051610cbb9190611be3565b908152602001604051809103902060070154600083604051610cdd9190611be3565b90815260200160405180910390206000600185604051610cfd9190611be3565b908152602001604051809103902060080160009054906101000a900473ffffffffffffffffffffffffffffffffffffffff1673ffffffffffffffffffffffffffffffffffffffff1673ffffffffffffffffffffffffffffffffffffffff1681526020019081526020016000206000828254610d7891906120e1565b925050819055505b33600183604051610d919190611be3565b908152602001604051809103902060080160006101000a81548173ffffffffffffffffffffffffffffffffffffffff021916908373ffffffffffffffffffffffffffffffffffffffff16021790555080600183604051610df19190611be3565b9081526020016040518091039020600701819055505050565b60008082604051610e1b9190611be3565b908152602001604051809103902060003373ffffffffffffffffffffffffffffffffffffffff1673ffffffffffffffffffffffffffffffffffffffff1681526020019081526020016000205490503373ffffffffffffffffffffffffffffffffffffffff16600183604051610e909190611be3565b908152602001604051809103902060080160009054906101000a900473ffffffffffffffffffffffffffffffffffffffff1673ffffffffffffffffffffffffffffffffffffffff1603610ee257600080fd5b60008103610eef57600080fd5b60008083604051610f009190611be3565b908152602001604051809103902060003373ffffffffffffffffffffffffffffffffffffffff1673ffffffffffffffffffffffffffffffffffffffff168152602001908152602001600020819055503373ffffffffffffffffffffffffffffffffffffffff166108fc829081150290604051600060405180830381858888f19350505050610fe95780600083604051610f999190611be3565b908152602001604051809103902060003373ffffffffffffffffffffffffffffffffffffffff1673ffffffffffffffffffffffffffffffffffffffff168152602001908152602001600020819055505b5050565b3373ffffffffffffffffffffffffffffffffffffffff166001826040516110149190611be3565b908152602001604051809103902060080160009054906101000a900473ffffffffffffffffffffffffffffffffffffffff1673ffffffffffffffffffffffffffffffffffffffff161461109b577fc312295635bf1b7a5382960de2df3187c6947a801b656f2c29f770fc92f53da060405161108e906122e6565b60405180910390a1600080fd5b6001816040516110ab9190611be3565b908152602001604051809103902060050154421115611133577fc312295635bf1b7a5382960de2df3187c6947a801b656f2c29f770fc92f53da06040516110f190612352565b60405180910390a16001808260405161110a9190611be3565b908152602001604051809103902060080160146101000a81548160ff0219169083151502179055505b600015156001826040516111479190611be3565b908152602001604051809103902060080160149054906101000a900460ff161515036111a7577fc312295635bf1b7a5382960de2df3187c6947a801b656f2c29f770fc92f53da060405161119a906123be565b60405180910390a1600080fd5b6001816040516111b79190611be3565b908152602001604051809103902060060160009054906101000a900473ffffffffffffffffffffffffffffffffffffffff1673ffffffffffffffffffffffffffffffffffffffff166108fc6001836040516112129190611be3565b9081526020016040518091039020600701549081150290604051600060405180830381858888f1935050505015801561124f573d6000803e3d6000fd5b5050565b60018180516020810182018051848252602083016020850120818352809550505050505060009150905080600001805461128c90611c29565b80601f01602080910402602001604051908101604052809291908181526020018280546112b890611c29565b80156113055780601f106112da57610100808354040283529160200191611305565b820191906000526020600020905b8154815290600101906020018083116112e857829003601f168201915b5050505050908060010160405180604001604052908160008201805461132a90611c29565b80601f016020809104026020016040519081016040528092919081815260200182805461135690611c29565b80156113a35780601f10611378576101008083540402835291602001916113a3565b820191906000526020600020905b81548152906001019060200180831161138657829003601f168201915b50505050508152602001600182015481525050908060030160009054906101000a900460ff16908060040154908060050154908060060160009054906101000a900473ffffffffffffffffffffffffffffffffffffffff16908060070154908060080160009054906101000a900473ffffffffffffffffffffffffffffffffffffffff16908060080160149054906101000a900460ff16905089565b600082805160208101820180518482526020830160208501208183528095505050505050602052806000526040600020600091509150505481565b604051806101200160405280606081526020016114956114fc565b81526020016000151581526020016000815260200160008152602001600073ffffffffffffffffffffffffffffffffffffffff16815260200160008152602001600073ffffffffffffffffffffffffffffffffffffffff1681526020016000151581525090565b604051806040016040528060608152602001600081525090565b6000604051905090565b600080fd5b600080fd5b600080fd5b600080fd5b6000601f19601f8301169050919050565b7f4e487b7100000000000000000000000000000000000000000000000000000000600052604160045260246000fd5b61157d82611534565b810181811067ffffffffffffffff8211171561159c5761159b611545565b5b80604052505050565b60006115af611516565b90506115bb8282611574565b919050565b600067ffffffffffffffff8211156115db576115da611545565b5b6115e482611534565b9050602081019050919050565b82818337600083830152505050565b600061161361160e846115c0565b6115a5565b90508281526020810184848401111561162f5761162e61152f565b5b61163a8482856115f1565b509392505050565b600082601f8301126116575761165661152a565b5b8135611667848260208601611600565b91505092915050565b60006020828403121561168657611685611520565b5b600082013567ffffffffffffffff8111156116a4576116a3611525565b5b6116b084828501611642565b91505092915050565b600081519050919050565b600082825260208201905092915050565b60005b838110156116f35780820151818401526020810190506116d8565b60008484015250505050565b600061170a826116b9565b61171481856116c4565b93506117248185602086016116d5565b61172d81611534565b840191505092915050565b6000819050919050565b61174b81611738565b82525050565b6000604083016000830151848203600086015261176e82826116ff565b91505060208301516117836020860182611742565b508091505092915050565b60008115159050919050565b6117a38161178e565b82525050565b600073ffffffffffffffffffffffffffffffffffffffff82169050919050565b60006117d4826117a9565b9050919050565b6117e4816117c9565b82525050565b600061012083016000830151848203600086015261180882826116ff565b915050602083015184820360208601526118228282611751565b9150506040830151611837604086018261179a565b50606083015161184a6060860182611742565b50608083015161185d6080860182611742565b5060a083015161187060a08601826117db565b5060c083015161188360c0860182611742565b5060e083015161189660e08601826117db565b506101008301516118ab61010086018261179a565b508091505092915050565b600060208201905081810360008301526118d081846117ea565b905092915050565b6118e181611738565b81146118ec57600080fd5b50565b6000813590506118fe816118d8565b92915050565b6000806000806080858703121561191e5761191d611520565b5b600085013567ffffffffffffffff81111561193c5761193b611525565b5b61194887828801611642565b945050602085013567ffffffffffffffff81111561196957611968611525565b5b61197587828801611642565b9350506040611986878288016118ef565b9250506060611997878288016118ef565b91505092959194509250565b6119ac81611738565b82525050565b60006020820190506119c760008301846119a3565b92915050565b600082825260208201905092915050565b60006119e9826116b9565b6119f381856119cd565b9350611a038185602086016116d5565b611a0c81611534565b840191505092915050565b60006040830160008301518482036000860152611a3482826116ff565b9150506020830151611a496020860182611742565b508091505092915050565b611a5d8161178e565b82525050565b611a6c816117c9565b82525050565b6000610120820190508181036000830152611a8d818c6119de565b90508181036020830152611aa1818b611a17565b9050611ab0604083018a611a54565b611abd60608301896119a3565b611aca60808301886119a3565b611ad760a0830187611a63565b611ae460c08301866119a3565b611af160e0830185611a63565b611aff610100830184611a54565b9a9950505050505050505050565b6000611b18826117a9565b9050919050565b611b2881611b0d565b8114611b3357600080fd5b50565b600081359050611b4581611b1f565b92915050565b60008060408385031215611b6257611b61611520565b5b600083013567ffffffffffffffff811115611b8057611b7f611525565b5b611b8c85828601611642565b9250506020611b9d85828601611b36565b9150509250929050565b600081905092915050565b6000611bbd826116b9565b611bc78185611ba7565b9350611bd78185602086016116d5565b80840191505092915050565b6000611bef8284611bb2565b915081905092915050565b7f4e487b7100000000000000000000000000000000000000000000000000000000600052602260045260246000fd5b60006002820490506001821680611c4157607f821691505b602082108103611c5457611c53611bfa565b5b50919050565b6000819050919050565b6000611c7f611c7a611c75846117a9565b611c5a565b6117a9565b9050919050565b6000611c9182611c64565b9050919050565b6000611ca382611c86565b9050919050565b611cb381611c98565b82525050565b60008190508160005260206000209050919050565b60008154611cdb81611c29565b611ce581866116c4565b94506001821660008114611d005760018114611d1657611d49565b60ff198316865281151560200286019350611d49565b611d1f85611cb9565b60005b83811015611d4157815481890152600182019150602081019050611d22565b808801955050505b50505092915050565b60008160001c9050919050565b6000819050919050565b6000611d7c611d7783611d52565b611d5f565b9050919050565b60006040830160008084018583036000870152611da08382611cce565b92505060018401549050611db381611d69565b611dc06020870182611742565b50819250505092915050565b60006060820190508181036000830152611de681866119de565b9050611df56020830185611caa565b8181036040830152611e078184611d83565b9050949350505050565b60006020601f8301049050919050565b600082821b905092915050565b600060088302611e5e7fffffffffffffffffffffffffffffffffffffffffffffffffffffffffffffffff82611e21565b611e688683611e21565b95508019841693508086168417925050509392505050565b6000611e9b611e96611e9184611738565b611c5a565b611738565b9050919050565b6000819050919050565b611eb583611e80565b611ec9611ec182611ea2565b848454611e2e565b825550505050565b600090565b611ede611ed1565b611ee9818484611eac565b505050565b5b81811015611f0d57611f02600082611ed6565b600181019050611eef565b5050565b601f821115611f5257611f2381611cb9565b611f2c84611e11565b81016020851015611f3b578190505b611f4f611f4785611e11565b830182611eee565b50505b505050565b600082821c905092915050565b6000611f7560001984600802611f57565b1980831691505092915050565b6000611f8e8383611f64565b9150826002028217905092915050565b611fa7826116b9565b67ffffffffffffffff811115611fc057611fbf611545565b5b611fca8254611c29565b611fd5828285611f11565b600060209050601f8311600181146120085760008415611ff6578287015190505b6120008582611f82565b865550612068565b601f19841661201686611cb9565b60005b8281101561203e57848901518255600182019150602085019450602081019050612019565b8683101561205b5784890151612057601f891682611f64565b8355505b6001600288020188555050505b505050505050565b7f4e487b7100000000000000000000000000000000000000000000000000000000600052601160045260246000fd5b60006120aa82611738565b91506120b583611738565b92508282026120c381611738565b915082820484148315176120da576120d9612070565b5b5092915050565b60006120ec82611738565b91506120f783611738565b925082820190508082111561210f5761210e612070565b5b92915050565b600060a082019050818103600083015261212f81886119de565b905061213e6020830187611caa565b81810360408301526121508186611d83565b905061215f60608301856119a3565b61216c60808301846119a3565b9695505050505050565b7f41756374696f6e206e6f742073746172746564206f7220616c7265616479206560008201527f6e64656400000000000000000000000000000000000000000000000000000000602082015250565b60006121d26024836119cd565b91506121dd82612176565b604082019050919050565b60006020820190508181036000830152612201816121c5565b9050919050565b7f4269642076616c7565206973206c657373207468616e2074686520686967686560008201527f7374206269640000000000000000000000000000000000000000000000000000602082015250565b60006122646026836119cd565b915061226f82612208565b604082019050919050565b6000602082019050818103600083015261229381612257565b9050919050565b7f596f7520617265206e6f74207468652068696768657374206269646465720000600082015250565b60006122d0601e836119cd565b91506122db8261229a565b602082019050919050565b600060208201905081810360008301526122ff816122c3565b9050919050565b7f41756374696f6e2068617320656e646564000000000000000000000000000000600082015250565b600061233c6011836119cd565b915061234782612306565b602082019050919050565b6000602082019050818103600083015261236b8161232f565b9050919050565b7f41756374696f6e20686173206e6f7420656e6465640000000000000000000000600082015250565b60006123a86015836119cd565b91506123b382612372565b602082019050919050565b600060208201905081810360008301526123d78161239b565b905091905056fea26469706673582212200b6401610d3cdb67039197d95194b18da1c883d4a5a99507059a7e8a75b9137964736f6c63430008120033",
  "immutableReferences": {},
  "source": "// SPDX-License-Identifier: MIT\npragma solidity ^0.8.4;\n// import \"@openzeppelin/contracts/access/Ownable.sol\";\n// import \"@openzeppelin/contracts/utils/Strings.sol\";\n\n/*\n1. Owner lists the product\n2. Owner begins the auction\n3. Bidders bid on the product\n    a. Bidders can see the current highest bid, previous bids\n    b. Bidder bids with money on top of her previous bid\n        i. Bid validation (value, time, current highest bid)\n        ii. Previous highest bidder withdraw enabled\n    c. Bidder can withdraw her bid (if she is not the highest bidder)\n4. Auction time ends\n5. Winner approves the product and then the contract pays the owner\n6. Unsuccesful bids can still be withdrawn\n*/\n\ncontract Auction {\n\n    struct product {\n        string product_name;\n        uint256 base_price;\n    }\n\n    struct auction {\n        string auction_id;\n        product listed_product;\n        bool started;\n        uint256 auction_time;\n        uint256 end_time;\n        address payable owner;\n        uint256 highest_bid;\n        address payable highest_bidder;\n        bool ended;\n    }\n\n    mapping(string => mapping(address => uint256)) public withdrawals;\n\n    mapping(string => auction) public auctions;\n\n    // events\n    event RevertMessage(string _message);\n    event AuctionAlreadyAdded(string _auction_id, address _owner, product _product);\n    event AuctionStarted(string _auction_id, address _owner, product _product, uint256 _starting_time, uint256 _auction_time);\n    \n    // function to create an auction\n    function createAuction (string memory _auction_id, string memory _product_name, uint256 _base_price, uint256 _auction_time) public {\n        if (auctions[_auction_id].owner != address(0)) {\n            emit AuctionAlreadyAdded(_auction_id, auctions[_auction_id].owner, auctions[_auction_id].listed_product);\n            revert();\n        }\n\n        auctions[_auction_id].auction_id = _auction_id;\n        auctions[_auction_id].listed_product.product_name = _product_name;\n        auctions[_auction_id].listed_product.base_price = _base_price * 10**15;\n        auctions[_auction_id].started = false;\n        auctions[_auction_id].auction_time = _auction_time;\n        auctions[_auction_id].owner = payable(msg.sender);\n        auctions[_auction_id].highest_bid = 0;\n        auctions[_auction_id].highest_bidder = payable(address(0));\n        auctions[_auction_id].ended = false;\n    }\n\n    function startAuction (string memory _auction_id) public {\n        if (auctions[_auction_id].owner != msg.sender || auctions[_auction_id].started == true) {\n            revert();\n        }\n\n        auctions[_auction_id].started = true;\n        auctions[_auction_id].end_time = block.timestamp + auctions[_auction_id].auction_time;\n\n        emit AuctionStarted(_auction_id, auctions[_auction_id].owner, auctions[_auction_id].listed_product, block.timestamp, auctions[_auction_id].auction_time);\n    }\n\n    function makeBid (string memory _auction_id) external payable {\n\n        if (block.timestamp > auctions[_auction_id].end_time) {\n            auctions[_auction_id].ended = true;\n        }\n\n        if (auctions[_auction_id].started == false || auctions[_auction_id].ended == true) {\n            emit RevertMessage(\"Auction not started or already ended\");\n            revert();\n        }\n\n        uint256 bid_value = msg.value + withdrawals[_auction_id][msg.sender];\n\n        if ((auctions[_auction_id].highest_bid == 0 && bid_value < auctions[_auction_id].listed_product.base_price) || bid_value < auctions[_auction_id].highest_bid) {\n            emit RevertMessage(\"Bid value is less than the highest bid\");\n            revert();\n        }\n\n        if (auctions[_auction_id].highest_bidder != address(0)) {\n            withdrawals[_auction_id][auctions[_auction_id].highest_bidder] += auctions[_auction_id].highest_bid;\n        }\n\n        auctions[_auction_id].highest_bidder = payable(msg.sender);\n        auctions[_auction_id].highest_bid = bid_value;\n    }\n\n    function withdrawBid (string memory _auction_id) external {\n\n        uint256 amount = withdrawals[_auction_id][msg.sender];\n        if (auctions[_auction_id].highest_bidder == msg.sender) {\n            revert();\n        }\n\n        if (amount == 0) {\n            revert();\n        }\n\n        withdrawals[_auction_id][msg.sender] = 0;\n        if (!payable(msg.sender).send(amount)) {\n            withdrawals[_auction_id][msg.sender] = amount;\n        }\n    }\n\n    function approveProduct (string memory _auction_id) external {\n        if (auctions[_auction_id].highest_bidder != msg.sender) {\n            emit RevertMessage(\"You are not the highest bidder\");\n            revert();\n        }\n\n        if (block.timestamp > auctions[_auction_id].end_time) {\n            emit RevertMessage(\"Auction has ended\");\n            auctions[_auction_id].ended = true;\n        }\n\n        if (auctions[_auction_id].ended == false) {\n            emit RevertMessage(\"Auction has not ended\");\n            revert();\n        }\n\n        auctions[_auction_id].owner.transfer(auctions[_auction_id].highest_bid);\n        // if (!payable(auctions[_auction_id].owner).send(auctions[_auction_id].highest_bid)) {\n        //     emit RevertMessage(\"Owner Transfer failed\");\n        //     revert();\n        // }\n    }\n\n\n    // utility functions\n    function getAuctionDetails (string memory _auction_id) public view returns (auction memory) {\n        \n        return auctions[_auction_id];\n    }\n\n    function getContractBalance () public view returns (uint256) {\n        return address(this).balance;\n    }\n\n    \n}",
  "sourcePath": "/home/dev/Documents/Local_projects/auction/truffle/contracts/Auctions.sol",
  "compiler": {
    "name": "solc",
    "version": "0.8.18+commit.87f61d96.Emscripten.clang"
  },
  "schemaVersion": "3.4.14",
  "updatedAt": "2023-06-24T17:29:50.536Z",
  "networkType": "ethereum",
  "devdoc": {
    "kind": "dev",
    "methods": {},
    "version": 1
  },
  "userdoc": {
    "kind": "user",
    "methods": {},
    "version": 1
  }
}