{
  "contractName": "Auction",
  "abi": [
    {
      "anonymous": false,
      "inputs": [
        {
          "indexed": false,
          "internalType": "string",
          "name": "_auction_id",
          "type": "string"
        },
        {
          "indexed": false,
          "internalType": "address",
          "name": "_owner",
          "type": "address"
        },
        {
          "components": [
            {
              "internalType": "string",
              "name": "product_name",
              "type": "string"
            },
            {
              "internalType": "uint256",
              "name": "base_price",
              "type": "uint256"
            }
          ],
          "indexed": false,
          "internalType": "struct Auction.product",
          "name": "_product",
          "type": "tuple"
        }
      ],
      "name": "AuctionAlreadyAdded",
      "type": "event"
    },
    {
      "anonymous": false,
      "inputs": [
        {
          "indexed": false,
          "internalType": "string",
          "name": "_auction_id",
          "type": "string"
        },
        {
          "indexed": false,
          "internalType": "address",
          "name": "_owner",
          "type": "address"
        },
        {
          "components": [
            {
              "internalType": "string",
              "name": "product_name",
              "type": "string"
            },
            {
              "internalType": "uint256",
              "name": "base_price",
              "type": "uint256"
            }
          ],
          "indexed": false,
          "internalType": "struct Auction.product",
          "name": "_product",
          "type": "tuple"
        },
        {
          "indexed": false,
          "internalType": "uint256",
          "name": "_starting_time",
          "type": "uint256"
        },
        {
          "indexed": false,
          "internalType": "uint256",
          "name": "_auction_time",
          "type": "uint256"
        }
      ],
      "name": "AuctionStarted",
      "type": "event"
    },
    {
      "anonymous": false,
      "inputs": [
        {
          "indexed": false,
          "internalType": "string",
          "name": "_message",
          "type": "string"
        }
      ],
      "name": "RevertMessage",
      "type": "event"
    },
    {
      "inputs": [
        {
          "internalType": "uint256",
          "name": "",
          "type": "uint256"
        }
      ],
      "name": "auction_ids",
      "outputs": [
        {
          "internalType": "string",
          "name": "",
          "type": "string"
        }
      ],
      "stateMutability": "view",
      "type": "function",
      "constant": true
    },
    {
      "inputs": [
        {
          "internalType": "string",
          "name": "",
          "type": "string"
        }
      ],
      "name": "auctions",
      "outputs": [
        {
          "internalType": "string",
          "name": "auction_id",
          "type": "string"
        },
        {
          "components": [
            {
              "internalType": "string",
              "name": "product_name",
              "type": "string"
            },
            {
              "internalType": "uint256",
              "name": "base_price",
              "type": "uint256"
            }
          ],
          "internalType": "struct Auction.product",
          "name": "listed_product",
          "type": "tuple"
        },
        {
          "internalType": "bool",
          "name": "started",
          "type": "bool"
        },
        {
          "internalType": "uint256",
          "name": "auction_time",
          "type": "uint256"
        },
        {
          "internalType": "uint256",
          "name": "end_time",
          "type": "uint256"
        },
        {
          "internalType": "address payable",
          "name": "owner",
          "type": "address"
        },
        {
          "internalType": "uint256",
          "name": "highest_bid",
          "type": "uint256"
        },
        {
          "internalType": "address payable",
          "name": "highest_bidder",
          "type": "address"
        },
        {
          "internalType": "bool",
          "name": "ended",
          "type": "bool"
        }
      ],
      "stateMutability": "view",
      "type": "function",
      "constant": true
    },
    {
      "inputs": [
        {
          "internalType": "string",
          "name": "",
          "type": "string"
        },
        {
          "internalType": "address",
          "name": "",
          "type": "address"
        }
      ],
      "name": "withdrawals",
      "outputs": [
        {
          "internalType": "uint256",
          "name": "",
          "type": "uint256"
        }
      ],
      "stateMutability": "view",
      "type": "function",
      "constant": true
    },
    {
      "inputs": [
        {
          "internalType": "string",
          "name": "_auction_id",
          "type": "string"
        },
        {
          "internalType": "string",
          "name": "_product_name",
          "type": "string"
        },
        {
          "internalType": "uint256",
          "name": "_base_price",
          "type": "uint256"
        },
        {
          "internalType": "uint256",
          "name": "_auction_time",
          "type": "uint256"
        }
      ],
      "name": "createAuction",
      "outputs": [],
      "stateMutability": "nonpayable",
      "type": "function"
    },
    {
      "inputs": [
        {
          "internalType": "string",
          "name": "_auction_id",
          "type": "string"
        }
      ],
      "name": "startAuction",
      "outputs": [],
      "stateMutability": "nonpayable",
      "type": "function"
    },
    {
      "inputs": [
        {
          "internalType": "string",
          "name": "_auction_id",
          "type": "string"
        }
      ],
      "name": "makeBid",
      "outputs": [],
      "stateMutability": "payable",
      "type": "function",
      "payable": true
    },
    {
      "inputs": [
        {
          "internalType": "string",
          "name": "_auction_id",
          "type": "string"
        }
      ],
      "name": "withdrawBid",
      "outputs": [],
      "stateMutability": "nonpayable",
      "type": "function"
    },
    {
      "inputs": [
        {
          "internalType": "string",
          "name": "_auction_id",
          "type": "string"
        }
      ],
      "name": "approveProduct",
      "outputs": [],
      "stateMutability": "nonpayable",
      "type": "function"
    },
    {
      "inputs": [
        {
          "internalType": "string",
          "name": "_auction_id",
          "type": "string"
        }
      ],
      "name": "getAuctionDetails",
      "outputs": [
        {
          "components": [
            {
              "internalType": "string",
              "name": "auction_id",
              "type": "string"
            },
            {
              "components": [
                {
                  "internalType": "string",
                  "name": "product_name",
                  "type": "string"
                },
                {
                  "internalType": "uint256",
                  "name": "base_price",
                  "type": "uint256"
                }
              ],
              "internalType": "struct Auction.product",
              "name": "listed_product",
              "type": "tuple"
            },
            {
              "internalType": "bool",
              "name": "started",
              "type": "bool"
            },
            {
              "internalType": "uint256",
              "name": "auction_time",
              "type": "uint256"
            },
            {
              "internalType": "uint256",
              "name": "end_time",
              "type": "uint256"
            },
            {
              "internalType": "address payable",
              "name": "owner",
              "type": "address"
            },
            {
              "internalType": "uint256",
              "name": "highest_bid",
              "type": "uint256"
            },
            {
              "internalType": "address payable",
              "name": "highest_bidder",
              "type": "address"
            },
            {
              "internalType": "bool",
              "name": "ended",
              "type": "bool"
            }
          ],
          "internalType": "struct Auction.auction",
          "name": "",
          "type": "tuple"
        }
      ],
      "stateMutability": "view",
      "type": "function",
      "constant": true
    },
    {
      "inputs": [],
      "name": "getAuctionIds",
      "outputs": [
        {
          "internalType": "string[]",
          "name": "",
          "type": "string[]"
        }
      ],
      "stateMutability": "view",
      "type": "function",
      "constant": true
    },
    {
      "inputs": [],
      "name": "getContractBalance",
      "outputs": [
        {
          "internalType": "uint256",
          "name": "",
          "type": "uint256"
        }
      ],
      "stateMutability": "view",
      "type": "function",
      "constant": true
    }
  ],
  "bytecode": "0x608060405234801561001057600080fd5b5061277f806100206000396000f3fe60806040526004361061009c5760003560e01c80639d9a1c99116100645780639d9a1c99146101865780639e25249e146101a2578063afca6706146101cb578063b76b1618146101f4578063b85d905314610239578063d65f8a98146102765761009c565b80631094db1b146100a15780632b00ee12146100cc57806361e2db55146101095780636f9fb98a1461013257806373dc756c1461015d575b600080fd5b3480156100ad57600080fd5b506100b66102b3565b6040516100c391906118a0565b60405180910390f35b3480156100d857600080fd5b506100f360048036038101906100ee9190611a0b565b61038c565b6040516101009190611bd2565b60405180910390f35b34801561011557600080fd5b50610130600480360381019061012b9190611c20565b610607565b005b34801561013e57600080fd5b50610147610976565b6040516101549190611cce565b60405180910390f35b34801561016957600080fd5b50610184600480360381019061017f9190611a0b565b61097e565b005b6101a0600480360381019061019b9190611a0b565b610b85565b005b3480156101ae57600080fd5b506101c960048036038101906101c49190611a0b565b610f96565b005b3480156101d757600080fd5b506101f260048036038101906101ed9190611a0b565b611179565b005b34801561020057600080fd5b5061021b60048036038101906102169190611a0b565b6113df565b60405161023099989796959493929190611d8e565b60405180910390f35b34801561024557600080fd5b50610260600480360381019061025b9190611e29565b6115cb565b60405161026d9190611e56565b60405180910390f35b34801561028257600080fd5b5061029d60048036038101906102989190611eb6565b611677565b6040516102aa9190611cce565b60405180910390f35b60606002805480602002602001604051908101604052809291908181526020016000905b828210156103835783829060005260206000200180546102f690611f41565b80601f016020809104026020016040519081016040528092919081815260200182805461032290611f41565b801561036f5780601f106103445761010080835404028352916020019161036f565b820191906000526020600020905b81548152906001019060200180831161035257829003601f168201915b5050505050815260200190600101906102d7565b50505050905090565b6103946116b2565b6001826040516103a49190611fae565b9081526020016040518091039020604051806101200160405290816000820180546103ce90611f41565b80601f01602080910402602001604051908101604052809291908181526020018280546103fa90611f41565b80156104475780601f1061041c57610100808354040283529160200191610447565b820191906000526020600020905b81548152906001019060200180831161042a57829003601f168201915b505050505081526020016001820160405180604001604052908160008201805461047090611f41565b80601f016020809104026020016040519081016040528092919081815260200182805461049c90611f41565b80156104e95780601f106104be576101008083540402835291602001916104e9565b820191906000526020600020905b8154815290600101906020018083116104cc57829003601f168201915b5050505050815260200160018201548152505081526020016003820160009054906101000a900460ff1615151515815260200160048201548152602001600582015481526020016006820160009054906101000a900473ffffffffffffffffffffffffffffffffffffffff1673ffffffffffffffffffffffffffffffffffffffff1673ffffffffffffffffffffffffffffffffffffffff168152602001600782015481526020016008820160009054906101000a900473ffffffffffffffffffffffffffffffffffffffff1673ffffffffffffffffffffffffffffffffffffffff1673ffffffffffffffffffffffffffffffffffffffff1681526020016008820160149054906101000a900460ff1615151515815250509050919050565b600073ffffffffffffffffffffffffffffffffffffffff1660018560405161062f9190611fae565b908152602001604051809103902060060160009054906101000a900473ffffffffffffffffffffffffffffffffffffffff1673ffffffffffffffffffffffffffffffffffffffff161461071d577f3a7ede679b7a41edd46d102a18c22ea7c7961bad08b3c780647274b68463a9f0846001866040516106ae9190611fae565b908152602001604051809103902060060160009054906101000a900473ffffffffffffffffffffffffffffffffffffffff166001876040516106f09190611fae565b908152602001604051809103902060010160405161071093929190612137565b60405180910390a1600080fd5b8360018560405161072e9190611fae565b9081526020016040518091039020600001908161074b9190612309565b508260018560405161075d9190611fae565b9081526020016040518091039020600101600001908161077d9190612309565b5066038d7ea4c6800082610791919061240a565b6001856040516107a19190611fae565b90815260200160405180910390206001016001018190555060006001856040516107cb9190611fae565b908152602001604051809103902060030160006101000a81548160ff021916908315150217905550806001856040516108049190611fae565b9081526020016040518091039020600401819055503360018560405161082a9190611fae565b908152602001604051809103902060060160006101000a81548173ffffffffffffffffffffffffffffffffffffffff021916908373ffffffffffffffffffffffffffffffffffffffff160217905550600060018560405161088b9190611fae565b90815260200160405180910390206007018190555060006001856040516108b29190611fae565b908152602001604051809103902060080160006101000a81548173ffffffffffffffffffffffffffffffffffffffff021916908373ffffffffffffffffffffffffffffffffffffffff16021790555060006001856040516109139190611fae565b908152602001604051809103902060080160146101000a81548160ff02191690831515021790555060028490806001815401808255809150506001900390600052602060002001600090919091909150908161096f9190612309565b5050505050565b600047905090565b3373ffffffffffffffffffffffffffffffffffffffff166001826040516109a59190611fae565b908152602001604051809103902060060160009054906101000a900473ffffffffffffffffffffffffffffffffffffffff1673ffffffffffffffffffffffffffffffffffffffff16141580610a2c575060011515600182604051610a099190611fae565b908152602001604051809103902060030160009054906101000a900460ff161515145b15610a3657600080fd5b60018082604051610a479190611fae565b908152602001604051809103902060030160006101000a81548160ff021916908315150217905550600181604051610a7f9190611fae565b90815260200160405180910390206004015442610a9c919061244c565b600182604051610aac9190611fae565b9081526020016040518091039020600501819055507f9d16eb35a2116e4e6b259561930fbe91a74e2f07b801a1e889c9e63ea042d0a281600183604051610af39190611fae565b908152602001604051809103902060060160009054906101000a900473ffffffffffffffffffffffffffffffffffffffff16600184604051610b359190611fae565b908152602001604051809103902060010142600186604051610b579190611fae565b908152602001604051809103902060040154604051610b7a959493929190612480565b60405180910390a150565b600181604051610b959190611fae565b908152602001604051809103902060050154421115610be85760018082604051610bbf9190611fae565b908152602001604051809103902060080160146101000a81548160ff0219169083151502179055505b60001515600182604051610bfc9190611fae565b908152602001604051809103902060030160009054906101000a900460ff1615151480610c5b575060011515600182604051610c389190611fae565b908152602001604051809103902060080160149054906101000a900460ff161515145b15610c9a577fc312295635bf1b7a5382960de2df3187c6947a801b656f2c29f770fc92f53da0604051610c8d90612553565b60405180910390a1600080fd5b60008082604051610cab9190611fae565b908152602001604051809103902060003373ffffffffffffffffffffffffffffffffffffffff1673ffffffffffffffffffffffffffffffffffffffff1681526020019081526020016000205434610d02919061244c565b90506000600183604051610d169190611fae565b908152602001604051809103902060070154148015610d585750600182604051610d409190611fae565b90815260200160405180910390206001016001015481105b80610d835750600182604051610d6e9190611fae565b90815260200160405180910390206007015481105b15610dc2577fc312295635bf1b7a5382960de2df3187c6947a801b656f2c29f770fc92f53da0604051610db5906125e5565b60405180910390a1600080fd5b600073ffffffffffffffffffffffffffffffffffffffff16600183604051610dea9190611fae565b908152602001604051809103902060080160009054906101000a900473ffffffffffffffffffffffffffffffffffffffff1673ffffffffffffffffffffffffffffffffffffffff1614610f0c57600182604051610e479190611fae565b908152602001604051809103902060070154600083604051610e699190611fae565b90815260200160405180910390206000600185604051610e899190611fae565b908152602001604051809103902060080160009054906101000a900473ffffffffffffffffffffffffffffffffffffffff1673ffffffffffffffffffffffffffffffffffffffff1673ffffffffffffffffffffffffffffffffffffffff1681526020019081526020016000206000828254610f04919061244c565b925050819055505b33600183604051610f1d9190611fae565b908152602001604051809103902060080160006101000a81548173ffffffffffffffffffffffffffffffffffffffff021916908373ffffffffffffffffffffffffffffffffffffffff16021790555080600183604051610f7d9190611fae565b9081526020016040518091039020600701819055505050565b60008082604051610fa79190611fae565b908152602001604051809103902060003373ffffffffffffffffffffffffffffffffffffffff1673ffffffffffffffffffffffffffffffffffffffff1681526020019081526020016000205490503373ffffffffffffffffffffffffffffffffffffffff1660018360405161101c9190611fae565b908152602001604051809103902060080160009054906101000a900473ffffffffffffffffffffffffffffffffffffffff1673ffffffffffffffffffffffffffffffffffffffff160361106e57600080fd5b6000810361107b57600080fd5b6000808360405161108c9190611fae565b908152602001604051809103902060003373ffffffffffffffffffffffffffffffffffffffff1673ffffffffffffffffffffffffffffffffffffffff168152602001908152602001600020819055503373ffffffffffffffffffffffffffffffffffffffff166108fc829081150290604051600060405180830381858888f1935050505061117557806000836040516111259190611fae565b908152602001604051809103902060003373ffffffffffffffffffffffffffffffffffffffff1673ffffffffffffffffffffffffffffffffffffffff168152602001908152602001600020819055505b5050565b3373ffffffffffffffffffffffffffffffffffffffff166001826040516111a09190611fae565b908152602001604051809103902060080160009054906101000a900473ffffffffffffffffffffffffffffffffffffffff1673ffffffffffffffffffffffffffffffffffffffff1614611227577fc312295635bf1b7a5382960de2df3187c6947a801b656f2c29f770fc92f53da060405161121a90612651565b60405180910390a1600080fd5b6001816040516112379190611fae565b9081526020016040518091039020600501544211156112bf577fc312295635bf1b7a5382960de2df3187c6947a801b656f2c29f770fc92f53da060405161127d906126bd565b60405180910390a1600180826040516112969190611fae565b908152602001604051809103902060080160146101000a81548160ff0219169083151502179055505b600015156001826040516112d39190611fae565b908152602001604051809103902060080160149054906101000a900460ff16151503611333577fc312295635bf1b7a5382960de2df3187c6947a801b656f2c29f770fc92f53da060405161132690612729565b60405180910390a1600080fd5b6001816040516113439190611fae565b908152602001604051809103902060060160009054906101000a900473ffffffffffffffffffffffffffffffffffffffff1673ffffffffffffffffffffffffffffffffffffffff166108fc60018360405161139e9190611fae565b9081526020016040518091039020600701549081150290604051600060405180830381858888f193505050501580156113db573d6000803e3d6000fd5b5050565b60018180516020810182018051848252602083016020850120818352809550505050505060009150905080600001805461141890611f41565b80601f016020809104026020016040519081016040528092919081815260200182805461144490611f41565b80156114915780601f1061146657610100808354040283529160200191611491565b820191906000526020600020905b81548152906001019060200180831161147457829003601f168201915b505050505090806001016040518060400160405290816000820180546114b690611f41565b80601f01602080910402602001604051908101604052809291908181526020018280546114e290611f41565b801561152f5780601f106115045761010080835404028352916020019161152f565b820191906000526020600020905b81548152906001019060200180831161151257829003601f168201915b50505050508152602001600182015481525050908060030160009054906101000a900460ff16908060040154908060050154908060060160009054906101000a900473ffffffffffffffffffffffffffffffffffffffff16908060070154908060080160009054906101000a900473ffffffffffffffffffffffffffffffffffffffff16908060080160149054906101000a900460ff16905089565b600281815481106115db57600080fd5b9060005260206000200160009150905080546115f690611f41565b80601f016020809104026020016040519081016040528092919081815260200182805461162290611f41565b801561166f5780601f106116445761010080835404028352916020019161166f565b820191906000526020600020905b81548152906001019060200180831161165257829003601f168201915b505050505081565b600082805160208101820180518482526020830160208501208183528095505050505050602052806000526040600020600091509150505481565b604051806101200160405280606081526020016116cd611734565b81526020016000151581526020016000815260200160008152602001600073ffffffffffffffffffffffffffffffffffffffff16815260200160008152602001600073ffffffffffffffffffffffffffffffffffffffff1681526020016000151581525090565b604051806040016040528060608152602001600081525090565b600081519050919050565b600082825260208201905092915050565b6000819050602082019050919050565b600081519050919050565b600082825260208201905092915050565b60005b838110156117b4578082015181840152602081019050611799565b60008484015250505050565b6000601f19601f8301169050919050565b60006117dc8261177a565b6117e68185611785565b93506117f6818560208601611796565b6117ff816117c0565b840191505092915050565b600061181683836117d1565b905092915050565b6000602082019050919050565b60006118368261174e565b6118408185611759565b9350836020820285016118528561176a565b8060005b8581101561188e578484038952815161186f858261180a565b945061187a8361181e565b925060208a01995050600181019050611856565b50829750879550505050505092915050565b600060208201905081810360008301526118ba818461182b565b905092915050565b6000604051905090565b600080fd5b600080fd5b600080fd5b600080fd5b7f4e487b7100000000000000000000000000000000000000000000000000000000600052604160045260246000fd5b611918826117c0565b810181811067ffffffffffffffff82111715611937576119366118e0565b5b80604052505050565b600061194a6118c2565b9050611956828261190f565b919050565b600067ffffffffffffffff821115611976576119756118e0565b5b61197f826117c0565b9050602081019050919050565b82818337600083830152505050565b60006119ae6119a98461195b565b611940565b9050828152602081018484840111156119ca576119c96118db565b5b6119d584828561198c565b509392505050565b600082601f8301126119f2576119f16118d6565b5b8135611a0284826020860161199b565b91505092915050565b600060208284031215611a2157611a206118cc565b5b600082013567ffffffffffffffff811115611a3f57611a3e6118d1565b5b611a4b848285016119dd565b91505092915050565b6000819050919050565b611a6781611a54565b82525050565b60006040830160008301518482036000860152611a8a82826117d1565b9150506020830151611a9f6020860182611a5e565b508091505092915050565b60008115159050919050565b611abf81611aaa565b82525050565b600073ffffffffffffffffffffffffffffffffffffffff82169050919050565b6000611af082611ac5565b9050919050565b611b0081611ae5565b82525050565b6000610120830160008301518482036000860152611b2482826117d1565b91505060208301518482036020860152611b3e8282611a6d565b9150506040830151611b536040860182611ab6565b506060830151611b666060860182611a5e565b506080830151611b796080860182611a5e565b5060a0830151611b8c60a0860182611af7565b5060c0830151611b9f60c0860182611a5e565b5060e0830151611bb260e0860182611af7565b50610100830151611bc7610100860182611ab6565b508091505092915050565b60006020820190508181036000830152611bec8184611b06565b905092915050565b611bfd81611a54565b8114611c0857600080fd5b50565b600081359050611c1a81611bf4565b92915050565b60008060008060808587031215611c3a57611c396118cc565b5b600085013567ffffffffffffffff811115611c5857611c576118d1565b5b611c64878288016119dd565b945050602085013567ffffffffffffffff811115611c8557611c846118d1565b5b611c91878288016119dd565b9350506040611ca287828801611c0b565b9250506060611cb387828801611c0b565b91505092959194509250565b611cc881611a54565b82525050565b6000602082019050611ce36000830184611cbf565b92915050565b600082825260208201905092915050565b6000611d058261177a565b611d0f8185611ce9565b9350611d1f818560208601611796565b611d28816117c0565b840191505092915050565b60006040830160008301518482036000860152611d5082826117d1565b9150506020830151611d656020860182611a5e565b508091505092915050565b611d7981611aaa565b82525050565b611d8881611ae5565b82525050565b6000610120820190508181036000830152611da9818c611cfa565b90508181036020830152611dbd818b611d33565b9050611dcc604083018a611d70565b611dd96060830189611cbf565b611de66080830188611cbf565b611df360a0830187611d7f565b611e0060c0830186611cbf565b611e0d60e0830185611d7f565b611e1b610100830184611d70565b9a9950505050505050505050565b600060208284031215611e3f57611e3e6118cc565b5b6000611e4d84828501611c0b565b91505092915050565b60006020820190508181036000830152611e708184611cfa565b905092915050565b6000611e8382611ac5565b9050919050565b611e9381611e78565b8114611e9e57600080fd5b50565b600081359050611eb081611e8a565b92915050565b60008060408385031215611ecd57611ecc6118cc565b5b600083013567ffffffffffffffff811115611eeb57611eea6118d1565b5b611ef7858286016119dd565b9250506020611f0885828601611ea1565b9150509250929050565b7f4e487b7100000000000000000000000000000000000000000000000000000000600052602260045260246000fd5b60006002820490506001821680611f5957607f821691505b602082108103611f6c57611f6b611f12565b5b50919050565b600081905092915050565b6000611f888261177a565b611f928185611f72565b9350611fa2818560208601611796565b80840191505092915050565b6000611fba8284611f7d565b915081905092915050565b6000819050919050565b6000611fea611fe5611fe084611ac5565b611fc5565b611ac5565b9050919050565b6000611ffc82611fcf565b9050919050565b600061200e82611ff1565b9050919050565b61201e81612003565b82525050565b60008190508160005260206000209050919050565b6000815461204681611f41565b6120508186611785565b9450600182166000811461206b5760018114612081576120b4565b60ff1983168652811515602002860193506120b4565b61208a85612024565b60005b838110156120ac5781548189015260018201915060208101905061208d565b808801955050505b50505092915050565b60008160001c9050919050565b6000819050919050565b60006120e76120e2836120bd565b6120ca565b9050919050565b6000604083016000808401858303600087015261210b8382612039565b9250506001840154905061211e816120d4565b61212b6020870182611a5e565b50819250505092915050565b600060608201905081810360008301526121518186611cfa565b90506121606020830185612015565b818103604083015261217281846120ee565b9050949350505050565b60006020601f8301049050919050565b600082821b905092915050565b6000600883026121c97fffffffffffffffffffffffffffffffffffffffffffffffffffffffffffffffff8261218c565b6121d3868361218c565b95508019841693508086168417925050509392505050565b60006122066122016121fc84611a54565b611fc5565b611a54565b9050919050565b6000819050919050565b612220836121eb565b61223461222c8261220d565b848454612199565b825550505050565b600090565b61224961223c565b612254818484612217565b505050565b5b818110156122785761226d600082612241565b60018101905061225a565b5050565b601f8211156122bd5761228e81612024565b6122978461217c565b810160208510156122a6578190505b6122ba6122b28561217c565b830182612259565b50505b505050565b600082821c905092915050565b60006122e0600019846008026122c2565b1980831691505092915050565b60006122f983836122cf565b9150826002028217905092915050565b6123128261177a565b67ffffffffffffffff81111561232b5761232a6118e0565b5b6123358254611f41565b61234082828561227c565b600060209050601f8311600181146123735760008415612361578287015190505b61236b85826122ed565b8655506123d3565b601f19841661238186612024565b60005b828110156123a957848901518255600182019150602085019450602081019050612384565b868310156123c657848901516123c2601f8916826122cf565b8355505b6001600288020188555050505b505050505050565b7f4e487b7100000000000000000000000000000000000000000000000000000000600052601160045260246000fd5b600061241582611a54565b915061242083611a54565b925082820261242e81611a54565b91508282048414831517612445576124446123db565b5b5092915050565b600061245782611a54565b915061246283611a54565b925082820190508082111561247a576124796123db565b5b92915050565b600060a082019050818103600083015261249a8188611cfa565b90506124a96020830187612015565b81810360408301526124bb81866120ee565b90506124ca6060830185611cbf565b6124d76080830184611cbf565b9695505050505050565b7f41756374696f6e206e6f742073746172746564206f7220616c7265616479206560008201527f6e64656400000000000000000000000000000000000000000000000000000000602082015250565b600061253d602483611ce9565b9150612548826124e1565b604082019050919050565b6000602082019050818103600083015261256c81612530565b9050919050565b7f4269642076616c7565206973206c657373207468616e2074686520686967686560008201527f7374206269640000000000000000000000000000000000000000000000000000602082015250565b60006125cf602683611ce9565b91506125da82612573565b604082019050919050565b600060208201905081810360008301526125fe816125c2565b9050919050565b7f596f7520617265206e6f74207468652068696768657374206269646465720000600082015250565b600061263b601e83611ce9565b915061264682612605565b602082019050919050565b6000602082019050818103600083015261266a8161262e565b9050919050565b7f41756374696f6e2068617320656e646564000000000000000000000000000000600082015250565b60006126a7601183611ce9565b91506126b282612671565b602082019050919050565b600060208201905081810360008301526126d68161269a565b9050919050565b7f41756374696f6e20686173206e6f7420656e6465640000000000000000000000600082015250565b6000612713601583611ce9565b915061271e826126dd565b602082019050919050565b6000602082019050818103600083015261274281612706565b905091905056fea2646970667358221220f68def8b6429af6d191b60a6eb9a5164791783081c5c25fa859b5f31de910be564736f6c63430008120033",
  "immutableReferences": {},
  "source": "// SPDX-License-Identifier: MIT\npragma solidity ^0.8.4;\n// import \"@openzeppelin/contracts/access/Ownable.sol\";\n// import \"@openzeppelin/contracts/utils/Strings.sol\";\n\n/*\n1. Owner lists the product\n2. Owner begins the auction\n3. Bidders bid on the product\n    a. Bidders can see the current highest bid, previous bids\n    b. Bidder bids with money on top of her previous bid\n        i. Bid validation (value, time, current highest bid)\n        ii. Previous highest bidder withdraw enabled\n    c. Bidder can withdraw her bid (if she is not the highest bidder)\n4. Auction time ends\n5. Winner approves the product and then the contract pays the owner\n6. Unsuccesful bids can still be withdrawn\n*/\n\ncontract Auction {\n\n    struct product {\n        string product_name;\n        uint256 base_price;\n    }\n\n    struct auction {\n        string auction_id;\n        product listed_product;\n        bool started;\n        uint256 auction_time;\n        uint256 end_time;\n        address payable owner;\n        uint256 highest_bid;\n        address payable highest_bidder;\n        bool ended;\n    }\n\n    mapping(string => mapping(address => uint256)) public withdrawals;\n\n    mapping(string => auction) public auctions;\n\n    string[] public auction_ids;\n\n    // events\n    event RevertMessage(string _message);\n    event AuctionAlreadyAdded(string _auction_id, address _owner, product _product);\n    event AuctionStarted(string _auction_id, address _owner, product _product, uint256 _starting_time, uint256 _auction_time);\n    \n    // function to create an auction\n    function createAuction (string memory _auction_id, string memory _product_name, uint256 _base_price, uint256 _auction_time) public {\n        if (auctions[_auction_id].owner != address(0)) {\n            emit AuctionAlreadyAdded(_auction_id, auctions[_auction_id].owner, auctions[_auction_id].listed_product);\n            revert();\n        }\n\n        auctions[_auction_id].auction_id = _auction_id;\n        auctions[_auction_id].listed_product.product_name = _product_name;\n        auctions[_auction_id].listed_product.base_price = _base_price * 10**15;\n        auctions[_auction_id].started = false;\n        auctions[_auction_id].auction_time = _auction_time;\n        auctions[_auction_id].owner = payable(msg.sender);\n        auctions[_auction_id].highest_bid = 0;\n        auctions[_auction_id].highest_bidder = payable(address(0));\n        auctions[_auction_id].ended = false;\n\n        auction_ids.push(_auction_id);\n    }\n\n    function startAuction (string memory _auction_id) public {\n        if (auctions[_auction_id].owner != msg.sender || auctions[_auction_id].started == true) {\n            revert();\n        }\n\n        auctions[_auction_id].started = true;\n        auctions[_auction_id].end_time = block.timestamp + auctions[_auction_id].auction_time;\n\n        emit AuctionStarted(_auction_id, auctions[_auction_id].owner, auctions[_auction_id].listed_product, block.timestamp, auctions[_auction_id].auction_time);\n    }\n\n    function makeBid (string memory _auction_id) external payable {\n\n        if (block.timestamp > auctions[_auction_id].end_time) {\n            auctions[_auction_id].ended = true;\n        }\n\n        if (auctions[_auction_id].started == false || auctions[_auction_id].ended == true) {\n            emit RevertMessage(\"Auction not started or already ended\");\n            revert();\n        }\n\n        uint256 bid_value = msg.value + withdrawals[_auction_id][msg.sender];\n\n        if ((auctions[_auction_id].highest_bid == 0 && bid_value < auctions[_auction_id].listed_product.base_price) || bid_value < auctions[_auction_id].highest_bid) {\n            emit RevertMessage(\"Bid value is less than the highest bid\");\n            revert();\n        }\n\n        if (auctions[_auction_id].highest_bidder != address(0)) {\n            withdrawals[_auction_id][auctions[_auction_id].highest_bidder] += auctions[_auction_id].highest_bid;\n        }\n\n        auctions[_auction_id].highest_bidder = payable(msg.sender);\n        auctions[_auction_id].highest_bid = bid_value;\n    }\n\n    function withdrawBid (string memory _auction_id) external {\n\n        uint256 amount = withdrawals[_auction_id][msg.sender];\n        if (auctions[_auction_id].highest_bidder == msg.sender) {\n            revert();\n        }\n\n        if (amount == 0) {\n            revert();\n        }\n\n        withdrawals[_auction_id][msg.sender] = 0;\n        if (!payable(msg.sender).send(amount)) {\n            withdrawals[_auction_id][msg.sender] = amount;\n        }\n    }\n\n    function approveProduct (string memory _auction_id) external {\n        if (auctions[_auction_id].highest_bidder != msg.sender) {\n            emit RevertMessage(\"You are not the highest bidder\");\n            revert();\n        }\n\n        if (block.timestamp > auctions[_auction_id].end_time) {\n            emit RevertMessage(\"Auction has ended\");\n            auctions[_auction_id].ended = true;\n        }\n\n        if (auctions[_auction_id].ended == false) {\n            emit RevertMessage(\"Auction has not ended\");\n            revert();\n        }\n\n        auctions[_auction_id].owner.transfer(auctions[_auction_id].highest_bid);\n        // if (!payable(auctions[_auction_id].owner).send(auctions[_auction_id].highest_bid)) {\n        //     emit RevertMessage(\"Owner Transfer failed\");\n        //     revert();\n        // }\n    }\n\n\n    // utility functions\n    function getAuctionDetails (string memory _auction_id) public view returns (auction memory) {\n        \n        return auctions[_auction_id];\n    }\n\n    function getAuctionIds () public view returns (string[] memory) {\n        return auction_ids;\n    }\n\n    function getContractBalance () public view returns (uint256) {\n        return address(this).balance;\n    }\n\n    \n}",
  "sourcePath": "/home/dev/Documents/Local_projects/auction/truffle/contracts/Auctions.sol",
  "compiler": {
    "name": "solc",
    "version": "0.8.18+commit.87f61d96.Emscripten.clang"
  },
  "schemaVersion": "3.4.14",
  "updatedAt": "2023-07-07T06:48:38.801Z",
  "networkType": "ethereum",
  "devdoc": {
    "kind": "dev",
    "methods": {},
    "version": 1
  },
  "userdoc": {
    "kind": "user",
    "methods": {},
    "version": 1
  }
}