{
  "contractName": "Auction",
  "abi": [
    {
      "anonymous": false,
      "inputs": [
        {
          "indexed": false,
          "internalType": "string",
          "name": "_auction_id",
          "type": "string"
        },
        {
          "indexed": false,
          "internalType": "address",
          "name": "_owner",
          "type": "address"
        },
        {
          "components": [
            {
              "internalType": "string",
              "name": "product_name",
              "type": "string"
            },
            {
              "internalType": "uint256",
              "name": "base_price",
              "type": "uint256"
            }
          ],
          "indexed": false,
          "internalType": "struct Auction.product",
          "name": "_product",
          "type": "tuple"
        }
      ],
      "name": "AuctionAlreadyAdded",
      "type": "event"
    },
    {
      "anonymous": false,
      "inputs": [
        {
          "indexed": false,
          "internalType": "string",
          "name": "_auction_id",
          "type": "string"
        },
        {
          "indexed": false,
          "internalType": "address",
          "name": "_owner",
          "type": "address"
        },
        {
          "components": [
            {
              "internalType": "string",
              "name": "product_name",
              "type": "string"
            },
            {
              "internalType": "uint256",
              "name": "base_price",
              "type": "uint256"
            }
          ],
          "indexed": false,
          "internalType": "struct Auction.product",
          "name": "_product",
          "type": "tuple"
        },
        {
          "indexed": false,
          "internalType": "uint256",
          "name": "_starting_time",
          "type": "uint256"
        },
        {
          "indexed": false,
          "internalType": "uint256",
          "name": "_auction_time",
          "type": "uint256"
        }
      ],
      "name": "AuctionStarted",
      "type": "event"
    },
    {
      "anonymous": false,
      "inputs": [
        {
          "indexed": false,
          "internalType": "string",
          "name": "_message",
          "type": "string"
        }
      ],
      "name": "RevertMessage",
      "type": "event"
    },
    {
      "inputs": [
        {
          "internalType": "uint256",
          "name": "",
          "type": "uint256"
        }
      ],
      "name": "auction_ids",
      "outputs": [
        {
          "internalType": "string",
          "name": "",
          "type": "string"
        }
      ],
      "stateMutability": "view",
      "type": "function",
      "constant": true
    },
    {
      "inputs": [
        {
          "internalType": "string",
          "name": "",
          "type": "string"
        }
      ],
      "name": "auctions",
      "outputs": [
        {
          "internalType": "string",
          "name": "auction_id",
          "type": "string"
        },
        {
          "internalType": "uint256",
          "name": "internal_id",
          "type": "uint256"
        },
        {
          "components": [
            {
              "internalType": "string",
              "name": "product_name",
              "type": "string"
            },
            {
              "internalType": "uint256",
              "name": "base_price",
              "type": "uint256"
            }
          ],
          "internalType": "struct Auction.product",
          "name": "listed_product",
          "type": "tuple"
        },
        {
          "internalType": "bool",
          "name": "started",
          "type": "bool"
        },
        {
          "internalType": "uint256",
          "name": "auction_time",
          "type": "uint256"
        },
        {
          "internalType": "uint256",
          "name": "end_time",
          "type": "uint256"
        },
        {
          "internalType": "address payable",
          "name": "owner",
          "type": "address"
        },
        {
          "components": [
            {
              "internalType": "uint256",
              "name": "bid_value",
              "type": "uint256"
            },
            {
              "internalType": "uint256",
              "name": "bid_time",
              "type": "uint256"
            },
            {
              "internalType": "address payable",
              "name": "bidder",
              "type": "address"
            }
          ],
          "internalType": "struct Auction.bid",
          "name": "highest_bid",
          "type": "tuple"
        },
        {
          "internalType": "bool",
          "name": "ended",
          "type": "bool"
        }
      ],
      "stateMutability": "view",
      "type": "function",
      "constant": true
    },
    {
      "inputs": [
        {
          "internalType": "string",
          "name": "",
          "type": "string"
        },
        {
          "internalType": "address",
          "name": "",
          "type": "address"
        }
      ],
      "name": "withdrawals",
      "outputs": [
        {
          "internalType": "uint256",
          "name": "",
          "type": "uint256"
        }
      ],
      "stateMutability": "view",
      "type": "function",
      "constant": true
    },
    {
      "inputs": [
        {
          "internalType": "string",
          "name": "_auction_id",
          "type": "string"
        },
        {
          "internalType": "string",
          "name": "_product_name",
          "type": "string"
        },
        {
          "internalType": "uint256",
          "name": "_base_price",
          "type": "uint256"
        },
        {
          "internalType": "uint256",
          "name": "_auction_time",
          "type": "uint256"
        }
      ],
      "name": "createAuction",
      "outputs": [],
      "stateMutability": "nonpayable",
      "type": "function"
    },
    {
      "inputs": [
        {
          "internalType": "string",
          "name": "_auction_id",
          "type": "string"
        }
      ],
      "name": "startAuction",
      "outputs": [],
      "stateMutability": "nonpayable",
      "type": "function"
    },
    {
      "inputs": [
        {
          "internalType": "string",
          "name": "_auction_id",
          "type": "string"
        }
      ],
      "name": "makeBid",
      "outputs": [],
      "stateMutability": "payable",
      "type": "function",
      "payable": true
    },
    {
      "inputs": [
        {
          "internalType": "string",
          "name": "_auction_id",
          "type": "string"
        }
      ],
      "name": "withdrawBid",
      "outputs": [],
      "stateMutability": "nonpayable",
      "type": "function"
    },
    {
      "inputs": [
        {
          "internalType": "string",
          "name": "_auction_id",
          "type": "string"
        }
      ],
      "name": "endAuction",
      "outputs": [],
      "stateMutability": "nonpayable",
      "type": "function"
    },
    {
      "inputs": [
        {
          "internalType": "string",
          "name": "_auction_id",
          "type": "string"
        }
      ],
      "name": "approveProduct",
      "outputs": [],
      "stateMutability": "nonpayable",
      "type": "function"
    },
    {
      "inputs": [
        {
          "internalType": "string",
          "name": "_auction_id",
          "type": "string"
        }
      ],
      "name": "getAuctionDetails",
      "outputs": [
        {
          "components": [
            {
              "internalType": "string",
              "name": "auction_id",
              "type": "string"
            },
            {
              "internalType": "uint256",
              "name": "internal_id",
              "type": "uint256"
            },
            {
              "components": [
                {
                  "internalType": "string",
                  "name": "product_name",
                  "type": "string"
                },
                {
                  "internalType": "uint256",
                  "name": "base_price",
                  "type": "uint256"
                }
              ],
              "internalType": "struct Auction.product",
              "name": "listed_product",
              "type": "tuple"
            },
            {
              "internalType": "bool",
              "name": "started",
              "type": "bool"
            },
            {
              "internalType": "uint256",
              "name": "auction_time",
              "type": "uint256"
            },
            {
              "internalType": "uint256",
              "name": "end_time",
              "type": "uint256"
            },
            {
              "internalType": "address payable",
              "name": "owner",
              "type": "address"
            },
            {
              "components": [
                {
                  "internalType": "uint256",
                  "name": "bid_value",
                  "type": "uint256"
                },
                {
                  "internalType": "uint256",
                  "name": "bid_time",
                  "type": "uint256"
                },
                {
                  "internalType": "address payable",
                  "name": "bidder",
                  "type": "address"
                }
              ],
              "internalType": "struct Auction.bid",
              "name": "highest_bid",
              "type": "tuple"
            },
            {
              "components": [
                {
                  "internalType": "uint256",
                  "name": "bid_value",
                  "type": "uint256"
                },
                {
                  "internalType": "uint256",
                  "name": "bid_time",
                  "type": "uint256"
                },
                {
                  "internalType": "address payable",
                  "name": "bidder",
                  "type": "address"
                }
              ],
              "internalType": "struct Auction.bid[]",
              "name": "bids",
              "type": "tuple[]"
            },
            {
              "internalType": "bool",
              "name": "ended",
              "type": "bool"
            }
          ],
          "internalType": "struct Auction.auction",
          "name": "",
          "type": "tuple"
        }
      ],
      "stateMutability": "view",
      "type": "function",
      "constant": true
    },
    {
      "inputs": [],
      "name": "getAuctionIds",
      "outputs": [
        {
          "internalType": "string[]",
          "name": "",
          "type": "string[]"
        }
      ],
      "stateMutability": "view",
      "type": "function",
      "constant": true
    },
    {
      "inputs": [
        {
          "internalType": "uint256",
          "name": "page_id",
          "type": "uint256"
        }
      ],
      "name": "getPastIds",
      "outputs": [
        {
          "internalType": "string[]",
          "name": "",
          "type": "string[]"
        }
      ],
      "stateMutability": "view",
      "type": "function",
      "constant": true
    },
    {
      "inputs": [
        {
          "internalType": "uint256",
          "name": "page_id",
          "type": "uint256"
        }
      ],
      "name": "getLiveIds",
      "outputs": [
        {
          "internalType": "string[]",
          "name": "",
          "type": "string[]"
        }
      ],
      "stateMutability": "view",
      "type": "function",
      "constant": true
    },
    {
      "inputs": [
        {
          "internalType": "uint256",
          "name": "page_id",
          "type": "uint256"
        }
      ],
      "name": "getUpcomingIds",
      "outputs": [
        {
          "internalType": "string[]",
          "name": "",
          "type": "string[]"
        }
      ],
      "stateMutability": "view",
      "type": "function",
      "constant": true
    },
    {
      "inputs": [],
      "name": "getContractBalance",
      "outputs": [
        {
          "internalType": "uint256",
          "name": "",
          "type": "uint256"
        }
      ],
      "stateMutability": "view",
      "type": "function",
      "constant": true
    }
  ],
  "bytecode": "0x608060405260006003556000600455600c60055534801561001f57600080fd5b506139858061002f6000396000f3fe6080604052600436106100e85760003560e01c80639e25249e1161008a578063c0f0303611610059578063c0f03036146102ff578063ce2ba9bf1461033c578063d65f8a9814610365578063ed5eb0fd146103a2576100e8565b80639e25249e1461022b578063afca670614610254578063b76b16181461027d578063b85d9053146102c2576100e8565b806361e2db55116100c657806361e2db55146101925780636f9fb98a146101bb57806373dc756c146101e65780639d9a1c991461020f576100e8565b80631094db1b146100ed5780632b00ee12146101185780634ad2104314610155575b600080fd5b3480156100f957600080fd5b506101026103df565b60405161010f9190612539565b60405180910390f35b34801561012457600080fd5b5061013f600480360381019061013a91906126a4565b6104b8565b60405161014c9190612978565b60405180910390f35b34801561016157600080fd5b5061017c600480360381019061017791906129c6565b610824565b6040516101899190612539565b60405180910390f35b34801561019e57600080fd5b506101b960048036038101906101b491906129f3565b6109a9565b005b3480156101c757600080fd5b506101d0610d74565b6040516101dd9190612aa1565b60405180910390f35b3480156101f257600080fd5b5061020d600480360381019061020891906126a4565b610d7c565b005b610229600480360381019061022491906126a4565b6110f9565b005b34801561023757600080fd5b50610252600480360381019061024d91906126a4565b6115f1565b005b34801561026057600080fd5b5061027b600480360381019061027691906126a4565b6117d7565b005b34801561028957600080fd5b506102a4600480360381019061029f91906126a4565b611a43565b6040516102b999989796959493929190612ba3565b60405180910390f35b3480156102ce57600080fd5b506102e960048036038101906102e491906129c6565b611c83565b6040516102f69190612c3e565b60405180910390f35b34801561030b57600080fd5b50610326600480360381019061032191906129c6565b611d2f565b6040516103339190612539565b60405180910390f35b34801561034857600080fd5b50610363600480360381019061035e9190612cc0565b611ede565b005b34801561037157600080fd5b5061038c60048036038101906103879190612d4b565b61216a565b6040516103999190612aa1565b60405180910390f35b3480156103ae57600080fd5b506103c960048036038101906103c491906129c6565b6121a5565b6040516103d69190612539565b60405180910390f35b60606002805480602002602001604051908101604052809291908181526020016000905b828210156104af57838290600052602060002001805461042290612dd6565b80601f016020809104026020016040519081016040528092919081815260200182805461044e90612dd6565b801561049b5780601f106104705761010080835404028352916020019161049b565b820191906000526020600020905b81548152906001019060200180831161047e57829003601f168201915b505050505081526020019060010190610403565b50505050905090565b6104c061231d565b6001826040516104d09190612e43565b9081526020016040518091039020604051806101400160405290816000820180546104fa90612dd6565b80601f016020809104026020016040519081016040528092919081815260200182805461052690612dd6565b80156105735780601f1061054857610100808354040283529160200191610573565b820191906000526020600020905b81548152906001019060200180831161055657829003601f168201915b5050505050815260200160018201548152602001600282016040518060400160405290816000820180546105a690612dd6565b80601f01602080910402602001604051908101604052809291908181526020018280546105d290612dd6565b801561061f5780601f106105f45761010080835404028352916020019161061f565b820191906000526020600020905b81548152906001019060200180831161060257829003601f168201915b5050505050815260200160018201548152505081526020016004820160009054906101000a900460ff1615151515815260200160058201548152602001600682015481526020016007820160009054906101000a900473ffffffffffffffffffffffffffffffffffffffff1673ffffffffffffffffffffffffffffffffffffffff1673ffffffffffffffffffffffffffffffffffffffff1681526020016008820160405180606001604052908160008201548152602001600182015481526020016002820160009054906101000a900473ffffffffffffffffffffffffffffffffffffffff1673ffffffffffffffffffffffffffffffffffffffff1673ffffffffffffffffffffffffffffffffffffffff16815250508152602001600b8201805480602002602001604051908101604052809291908181526020016000905b828210156107fa578382906000526020600020906003020160405180606001604052908160008201548152602001600182015481526020016002820160009054906101000a900473ffffffffffffffffffffffffffffffffffffffff1673ffffffffffffffffffffffffffffffffffffffff1673ffffffffffffffffffffffffffffffffffffffff16815250508152602001906001019061075e565b505050508152602001600c820160009054906101000a900460ff1615151515815250509050919050565b6060600060055467ffffffffffffffff81111561084457610843612579565b5b60405190808252806020026020018201604052801561087757816020015b60608152602001906001900390816108625790505b50905060008360055461088a9190612e89565b905060005b60055481101561099e5760035481836108a89190612ecb565b101561099e57600281836004546108bf9190612ecb565b6108c99190612ecb565b815481106108da576108d9612eff565b5b9060005260206000200180546108ef90612dd6565b80601f016020809104026020016040519081016040528092919081815260200182805461091b90612dd6565b80156109685780601f1061093d57610100808354040283529160200191610968565b820191906000526020600020905b81548152906001019060200180831161094b57829003601f168201915b50505050508382815181106109805761097f612eff565b5b6020026020010181905250808061099690612f2e565b91505061088f565b508192505050919050565b600073ffffffffffffffffffffffffffffffffffffffff166001856040516109d19190612e43565b908152602001604051809103902060070160009054906101000a900473ffffffffffffffffffffffffffffffffffffffff1673ffffffffffffffffffffffffffffffffffffffff1614610abf577f3a7ede679b7a41edd46d102a18c22ea7c7961bad08b3c780647274b68463a9f084600186604051610a509190612e43565b908152602001604051809103902060070160009054906101000a900473ffffffffffffffffffffffffffffffffffffffff16600187604051610a929190612e43565b9081526020016040518091039020600201604051610ab2939291906130e8565b60405180910390a1600080fd5b83600185604051610ad09190612e43565b90815260200160405180910390206000019081610aed91906132ba565b50600280549050600185604051610b049190612e43565b90815260200160405180910390206001018190555082600185604051610b2a9190612e43565b90815260200160405180910390206002016000019081610b4a91906132ba565b5066038d7ea4c6800082610b5e9190612e89565b600185604051610b6e9190612e43565b9081526020016040518091039020600201600101819055506000600185604051610b989190612e43565b908152602001604051809103902060040160006101000a81548160ff02191690831515021790555080600185604051610bd19190612e43565b90815260200160405180910390206005018190555033600185604051610bf79190612e43565b908152602001604051809103902060070160006101000a81548173ffffffffffffffffffffffffffffffffffffffff021916908373ffffffffffffffffffffffffffffffffffffffff160217905550600060405180606001604052806000815260200160008152602001600073ffffffffffffffffffffffffffffffffffffffff16815250905080600186604051610c8f9190612e43565b9081526020016040518091039020600801600082015181600001556020820151816001015560408201518160020160006101000a81548173ffffffffffffffffffffffffffffffffffffffff021916908373ffffffffffffffffffffffffffffffffffffffff1602179055509050506000600186604051610d109190612e43565b9081526020016040518091039020600c0160006101000a81548160ff021916908315150217905550600285908060018154018082558091505060019003906000526020600020016000909190919091509081610d6c91906132ba565b505050505050565b600047905090565b3373ffffffffffffffffffffffffffffffffffffffff16600182604051610da39190612e43565b908152602001604051809103902060070160009054906101000a900473ffffffffffffffffffffffffffffffffffffffff1673ffffffffffffffffffffffffffffffffffffffff16141580610e2a575060011515600182604051610e079190612e43565b908152602001604051809103902060040160009054906101000a900460ff161515145b15610e3457600080fd5b60018082604051610e459190612e43565b908152602001604051809103902060040160006101000a81548160ff021916908315150217905550600181604051610e7d9190612e43565b90815260200160405180910390206005015442610e9a9190612ecb565b600182604051610eaa9190612e43565b908152602001604051809103902060060181905550600454600354610ecf9190612ecb565b600182604051610edf9190612e43565b908152602001604051809103902060010181905550600181604051610f049190612e43565b90815260200160405180910390206001015460016002600454600354610f2a9190612ecb565b81548110610f3b57610f3a612eff565b5b90600052602060002001604051610f52919061340f565b9081526020016040518091039020600101819055506002600454600354610f799190612ecb565b81548110610f8a57610f89612eff565b5b906000526020600020016002600183604051610fa69190612e43565b90815260200160405180910390206001015481548110610fc957610fc8612eff565b5b906000526020600020019081610fdf9190613451565b50806002600454600354610ff39190612ecb565b8154811061100457611003612eff565b5b90600052602060002001908161101a91906132ba565b5060016003600082825461102e9190612ecb565b925050819055507f9d16eb35a2116e4e6b259561930fbe91a74e2f07b801a1e889c9e63ea042d0a2816001836040516110679190612e43565b908152602001604051809103902060070160009054906101000a900473ffffffffffffffffffffffffffffffffffffffff166001846040516110a99190612e43565b9081526020016040518091039020600201426001866040516110cb9190612e43565b9081526020016040518091039020600501546040516110ee959493929190613539565b60405180910390a150565b6001816040516111099190612e43565b90815260200160405180910390206006015442111561115c57600180826040516111339190612e43565b9081526020016040518091039020600c0160006101000a81548160ff0219169083151502179055505b600015156001826040516111709190612e43565b908152602001604051809103902060040160009054906101000a900460ff16151514806111cf5750600115156001826040516111ac9190612e43565b9081526020016040518091039020600c0160009054906101000a900460ff161515145b1561120e577fc312295635bf1b7a5382960de2df3187c6947a801b656f2c29f770fc92f53da06040516112019061360c565b60405180910390a1600080fd5b6000808260405161121f9190612e43565b908152602001604051809103902060003373ffffffffffffffffffffffffffffffffffffffff1673ffffffffffffffffffffffffffffffffffffffff16815260200190815260200160002054346112769190612ecb565b9050600060018360405161128a9190612e43565b9081526020016040518091039020600801600001541480156112cf57506001826040516112b79190612e43565b90815260200160405180910390206002016001015481105b806112fd57506001826040516112e59190612e43565b90815260200160405180910390206008016000015481105b1561133c577fc312295635bf1b7a5382960de2df3187c6947a801b656f2c29f770fc92f53da060405161132f9061369e565b60405180910390a1600080fd5b600073ffffffffffffffffffffffffffffffffffffffff166001836040516113649190612e43565b908152602001604051809103902060080160020160009054906101000a900473ffffffffffffffffffffffffffffffffffffffff1673ffffffffffffffffffffffffffffffffffffffff161461148f576001826040516113c49190612e43565b9081526020016040518091039020600801600001546000836040516113e99190612e43565b908152602001604051809103902060006001856040516114099190612e43565b908152602001604051809103902060080160020160009054906101000a900473ffffffffffffffffffffffffffffffffffffffff1673ffffffffffffffffffffffffffffffffffffffff1673ffffffffffffffffffffffffffffffffffffffff16815260200190815260200160002060008282546114879190612ecb565b925050819055505b600060405180606001604052808381526020014281526020013373ffffffffffffffffffffffffffffffffffffffff168152509050806001846040516114d59190612e43565b9081526020016040518091039020600801600082015181600001556020820151816001015560408201518160020160006101000a81548173ffffffffffffffffffffffffffffffffffffffff021916908373ffffffffffffffffffffffffffffffffffffffff1602179055509050506001836040516115549190612e43565b9081526020016040518091039020600b01819080600181540180825580915050600190039060005260206000209060030201600090919091909150600082015181600001556020820151816001015560408201518160020160006101000a81548173ffffffffffffffffffffffffffffffffffffffff021916908373ffffffffffffffffffffffffffffffffffffffff1602179055505050505050565b600080826040516116029190612e43565b908152602001604051809103902060003373ffffffffffffffffffffffffffffffffffffffff1673ffffffffffffffffffffffffffffffffffffffff1681526020019081526020016000205490503373ffffffffffffffffffffffffffffffffffffffff166001836040516116779190612e43565b908152602001604051809103902060080160020160009054906101000a900473ffffffffffffffffffffffffffffffffffffffff1673ffffffffffffffffffffffffffffffffffffffff16036116cc57600080fd5b600081036116d957600080fd5b600080836040516116ea9190612e43565b908152602001604051809103902060003373ffffffffffffffffffffffffffffffffffffffff1673ffffffffffffffffffffffffffffffffffffffff168152602001908152602001600020819055503373ffffffffffffffffffffffffffffffffffffffff166108fc829081150290604051600060405180830381858888f193505050506117d357806000836040516117839190612e43565b908152602001604051809103902060003373ffffffffffffffffffffffffffffffffffffffff1673ffffffffffffffffffffffffffffffffffffffff168152602001908152602001600020819055505b5050565b3373ffffffffffffffffffffffffffffffffffffffff166001826040516117fe9190612e43565b908152602001604051809103902060080160020160009054906101000a900473ffffffffffffffffffffffffffffffffffffffff1673ffffffffffffffffffffffffffffffffffffffff1614611888577fc312295635bf1b7a5382960de2df3187c6947a801b656f2c29f770fc92f53da060405161187b9061370a565b60405180910390a1600080fd5b6001816040516118989190612e43565b908152602001604051809103902060060154421115611920577fc312295635bf1b7a5382960de2df3187c6947a801b656f2c29f770fc92f53da06040516118de90613776565b60405180910390a1600180826040516118f79190612e43565b9081526020016040518091039020600c0160006101000a81548160ff0219169083151502179055505b600015156001826040516119349190612e43565b9081526020016040518091039020600c0160009054906101000a900460ff16151503611994577fc312295635bf1b7a5382960de2df3187c6947a801b656f2c29f770fc92f53da0604051611987906137e2565b60405180910390a1600080fd5b6001816040516119a49190612e43565b908152602001604051809103902060070160009054906101000a900473ffffffffffffffffffffffffffffffffffffffff1673ffffffffffffffffffffffffffffffffffffffff166108fc6001836040516119ff9190612e43565b9081526020016040518091039020600801600001549081150290604051600060405180830381858888f19350505050158015611a3f573d6000803e3d6000fd5b5050565b600181805160208101820180518482526020830160208501208183528095505050505050600091509050806000018054611a7c90612dd6565b80601f0160208091040260200160405190810160405280929190818152602001828054611aa890612dd6565b8015611af55780601f10611aca57610100808354040283529160200191611af5565b820191906000526020600020905b815481529060010190602001808311611ad857829003601f168201915b50505050509080600101549080600201604051806040016040529081600082018054611b2090612dd6565b80601f0160208091040260200160405190810160405280929190818152602001828054611b4c90612dd6565b8015611b995780601f10611b6e57610100808354040283529160200191611b99565b820191906000526020600020905b815481529060010190602001808311611b7c57829003601f168201915b50505050508152602001600182015481525050908060040160009054906101000a900460ff16908060050154908060060154908060070160009054906101000a900473ffffffffffffffffffffffffffffffffffffffff16908060080160405180606001604052908160008201548152602001600182015481526020016002820160009054906101000a900473ffffffffffffffffffffffffffffffffffffffff1673ffffffffffffffffffffffffffffffffffffffff1673ffffffffffffffffffffffffffffffffffffffff16815250509080600c0160009054906101000a900460ff16905089565b60028181548110611c9357600080fd5b906000526020600020016000915090508054611cae90612dd6565b80601f0160208091040260200160405190810160405280929190818152602001828054611cda90612dd6565b8015611d275780601f10611cfc57610100808354040283529160200191611d27565b820191906000526020600020905b815481529060010190602001808311611d0a57829003601f168201915b505050505081565b6060600060055467ffffffffffffffff811115611d4f57611d4e612579565b5b604051908082528060200260200182016040528015611d8257816020015b6060815260200190600190039081611d6d5790505b509050600083600554611d959190612e89565b905060005b600554811015611ed3576002805490508183600354600454611dbc9190612ecb565b611dc69190612ecb565b611dd09190612ecb565b1015611ed35760028183600354600454611dea9190612ecb565b611df49190612ecb565b611dfe9190612ecb565b81548110611e0f57611e0e612eff565b5b906000526020600020018054611e2490612dd6565b80601f0160208091040260200160405190810160405280929190818152602001828054611e5090612dd6565b8015611e9d5780601f10611e7257610100808354040283529160200191611e9d565b820191906000526020600020905b815481529060010190602001808311611e8057829003601f168201915b5050505050838281518110611eb557611eb4612eff565b5b60200260200101819052508080611ecb90612f2e565b915050611d9a565b508192505050919050565b3373ffffffffffffffffffffffffffffffffffffffff1660018383604051611f07929190613827565b908152602001604051809103902060070160009054906101000a900473ffffffffffffffffffffffffffffffffffffffff1673ffffffffffffffffffffffffffffffffffffffff16141580611f9057506001151560018383604051611f6d929190613827565b9081526020016040518091039020600c0160009054906101000a900460ff161515145b80611fbd57504260018383604051611fa9929190613827565b908152602001604051809103902060060154105b15611fc757600080fd5b6001808383604051611fda929190613827565b9081526020016040518091039020600c0160006101000a81548160ff02191690831515021790555060045460018383604051612017929190613827565b9081526020016040518091039020600101819055506001828260405161203e929190613827565b908152602001604051809103902060010154600160026004548154811061206857612067612eff565b5b9060005260206000200160405161207f919061340f565b9081526020016040518091039020600101819055506002600454815481106120aa576120a9612eff565b5b906000526020600020016002600184846040516120c8929190613827565b908152602001604051809103902060010154815481106120eb576120ea612eff565b5b9060005260206000200190816121019190613451565b50818160026004548154811061211a57612119612eff565b5b90600052602060002001918261213192919061384b565b506001600460008282546121459190612ecb565b9250508190555060016003600082825461215f919061391b565b925050819055505050565b600082805160208101820180518482526020830160208501208183528095505050505050602052806000526040600020600091509150505481565b6060600060055467ffffffffffffffff8111156121c5576121c4612579565b5b6040519080825280602002602001820160405280156121f857816020015b60608152602001906001900390816121e35790505b50905060008360055461220b9190612e89565b905060005b6005548110156123125760045481836122299190612ecb565b1015612312576002818361223d9190612ecb565b8154811061224e5761224d612eff565b5b90600052602060002001805461226390612dd6565b80601f016020809104026020016040519081016040528092919081815260200182805461228f90612dd6565b80156122dc5780601f106122b1576101008083540402835291602001916122dc565b820191906000526020600020905b8154815290600101906020018083116122bf57829003601f168201915b50505050508382815181106122f4576122f3612eff565b5b6020026020010181905250808061230a90612f2e565b915050612210565b508192505050919050565b604051806101400160405280606081526020016000815260200161233f612396565b81526020016000151581526020016000815260200160008152602001600073ffffffffffffffffffffffffffffffffffffffff1681526020016123806123b0565b8152602001606081526020016000151581525090565b604051806040016040528060608152602001600081525090565b60405180606001604052806000815260200160008152602001600073ffffffffffffffffffffffffffffffffffffffff1681525090565b600081519050919050565b600082825260208201905092915050565b6000819050602082019050919050565b600081519050919050565b600082825260208201905092915050565b60005b8381101561244d578082015181840152602081019050612432565b60008484015250505050565b6000601f19601f8301169050919050565b600061247582612413565b61247f818561241e565b935061248f81856020860161242f565b61249881612459565b840191505092915050565b60006124af838361246a565b905092915050565b6000602082019050919050565b60006124cf826123e7565b6124d981856123f2565b9350836020820285016124eb85612403565b8060005b85811015612527578484038952815161250885826124a3565b9450612513836124b7565b925060208a019950506001810190506124ef565b50829750879550505050505092915050565b6000602082019050818103600083015261255381846124c4565b905092915050565b6000604051905090565b600080fd5b600080fd5b600080fd5b600080fd5b7f4e487b7100000000000000000000000000000000000000000000000000000000600052604160045260246000fd5b6125b182612459565b810181811067ffffffffffffffff821117156125d0576125cf612579565b5b80604052505050565b60006125e361255b565b90506125ef82826125a8565b919050565b600067ffffffffffffffff82111561260f5761260e612579565b5b61261882612459565b9050602081019050919050565b82818337600083830152505050565b6000612647612642846125f4565b6125d9565b90508281526020810184848401111561266357612662612574565b5b61266e848285612625565b509392505050565b600082601f83011261268b5761268a61256f565b5b813561269b848260208601612634565b91505092915050565b6000602082840312156126ba576126b9612565565b5b600082013567ffffffffffffffff8111156126d8576126d761256a565b5b6126e484828501612676565b91505092915050565b6000819050919050565b612700816126ed565b82525050565b60006040830160008301518482036000860152612723828261246a565b915050602083015161273860208601826126f7565b508091505092915050565b60008115159050919050565b61275881612743565b82525050565b600073ffffffffffffffffffffffffffffffffffffffff82169050919050565b60006127898261275e565b9050919050565b6127998161277e565b82525050565b6060820160008201516127b560008501826126f7565b5060208201516127c860208501826126f7565b5060408201516127db6040850182612790565b50505050565b600081519050919050565b600082825260208201905092915050565b6000819050602082019050919050565b6000612819838361279f565b60608301905092915050565b6000602082019050919050565b600061283d826127e1565b61284781856127ec565b9350612852836127fd565b8060005b8381101561288357815161286a888261280d565b975061287583612825565b925050600181019050612856565b5085935050505092915050565b60006101808301600083015184820360008601526128ae828261246a565b91505060208301516128c360208601826126f7565b50604083015184820360408601526128db8282612706565b91505060608301516128f0606086018261274f565b50608083015161290360808601826126f7565b5060a083015161291660a08601826126f7565b5060c083015161292960c0860182612790565b5060e083015161293c60e086018261279f565b506101008301518482036101408601526129568282612832565b91505061012083015161296d61016086018261274f565b508091505092915050565b600060208201905081810360008301526129928184612890565b905092915050565b6129a3816126ed565b81146129ae57600080fd5b50565b6000813590506129c08161299a565b92915050565b6000602082840312156129dc576129db612565565b5b60006129ea848285016129b1565b91505092915050565b60008060008060808587031215612a0d57612a0c612565565b5b600085013567ffffffffffffffff811115612a2b57612a2a61256a565b5b612a3787828801612676565b945050602085013567ffffffffffffffff811115612a5857612a5761256a565b5b612a6487828801612676565b9350506040612a75878288016129b1565b9250506060612a86878288016129b1565b91505092959194509250565b612a9b816126ed565b82525050565b6000602082019050612ab66000830184612a92565b92915050565b600082825260208201905092915050565b6000612ad882612413565b612ae28185612abc565b9350612af281856020860161242f565b612afb81612459565b840191505092915050565b60006040830160008301518482036000860152612b23828261246a565b9150506020830151612b3860208601826126f7565b508091505092915050565b612b4c81612743565b82525050565b612b5b8161277e565b82525050565b606082016000820151612b7760008501826126f7565b506020820151612b8a60208501826126f7565b506040820151612b9d6040850182612790565b50505050565b6000610160820190508181036000830152612bbe818c612acd565b9050612bcd602083018b612a92565b8181036040830152612bdf818a612b06565b9050612bee6060830189612b43565b612bfb6080830188612a92565b612c0860a0830187612a92565b612c1560c0830186612b52565b612c2260e0830185612b61565b612c30610140830184612b43565b9a9950505050505050505050565b60006020820190508181036000830152612c588184612acd565b905092915050565b600080fd5b600080fd5b60008083601f840112612c8057612c7f61256f565b5b8235905067ffffffffffffffff811115612c9d57612c9c612c60565b5b602083019150836001820283011115612cb957612cb8612c65565b5b9250929050565b60008060208385031215612cd757612cd6612565565b5b600083013567ffffffffffffffff811115612cf557612cf461256a565b5b612d0185828601612c6a565b92509250509250929050565b6000612d188261275e565b9050919050565b612d2881612d0d565b8114612d3357600080fd5b50565b600081359050612d4581612d1f565b92915050565b60008060408385031215612d6257612d61612565565b5b600083013567ffffffffffffffff811115612d8057612d7f61256a565b5b612d8c85828601612676565b9250506020612d9d85828601612d36565b9150509250929050565b7f4e487b7100000000000000000000000000000000000000000000000000000000600052602260045260246000fd5b60006002820490506001821680612dee57607f821691505b602082108103612e0157612e00612da7565b5b50919050565b600081905092915050565b6000612e1d82612413565b612e278185612e07565b9350612e3781856020860161242f565b80840191505092915050565b6000612e4f8284612e12565b915081905092915050565b7f4e487b7100000000000000000000000000000000000000000000000000000000600052601160045260246000fd5b6000612e94826126ed565b9150612e9f836126ed565b9250828202612ead816126ed565b91508282048414831517612ec457612ec3612e5a565b5b5092915050565b6000612ed6826126ed565b9150612ee1836126ed565b9250828201905080821115612ef957612ef8612e5a565b5b92915050565b7f4e487b7100000000000000000000000000000000000000000000000000000000600052603260045260246000fd5b6000612f39826126ed565b91507fffffffffffffffffffffffffffffffffffffffffffffffffffffffffffffffff8203612f6b57612f6a612e5a565b5b600182019050919050565b6000819050919050565b6000612f9b612f96612f918461275e565b612f76565b61275e565b9050919050565b6000612fad82612f80565b9050919050565b6000612fbf82612fa2565b9050919050565b612fcf81612fb4565b82525050565b60008190508160005260206000209050919050565b60008154612ff781612dd6565b613001818661241e565b9450600182166000811461301c576001811461303257613065565b60ff198316865281151560200286019350613065565b61303b85612fd5565b60005b8381101561305d5781548189015260018201915060208101905061303e565b808801955050505b50505092915050565b60008160001c9050919050565b6000819050919050565b60006130986130938361306e565b61307b565b9050919050565b600060408301600080840185830360008701526130bc8382612fea565b925050600184015490506130cf81613085565b6130dc60208701826126f7565b50819250505092915050565b600060608201905081810360008301526131028186612acd565b90506131116020830185612fc6565b8181036040830152613123818461309f565b9050949350505050565b60006020601f8301049050919050565b600082821b905092915050565b60006008830261317a7fffffffffffffffffffffffffffffffffffffffffffffffffffffffffffffffff8261313d565b613184868361313d565b95508019841693508086168417925050509392505050565b60006131b76131b26131ad846126ed565b612f76565b6126ed565b9050919050565b6000819050919050565b6131d18361319c565b6131e56131dd826131be565b84845461314a565b825550505050565b600090565b6131fa6131ed565b6132058184846131c8565b505050565b5b818110156132295761321e6000826131f2565b60018101905061320b565b5050565b601f82111561326e5761323f81612fd5565b6132488461312d565b81016020851015613257578190505b61326b6132638561312d565b83018261320a565b50505b505050565b600082821c905092915050565b600061329160001984600802613273565b1980831691505092915050565b60006132aa8383613280565b9150826002028217905092915050565b6132c382612413565b67ffffffffffffffff8111156132dc576132db612579565b5b6132e68254612dd6565b6132f182828561322d565b600060209050601f8311600181146133245760008415613312578287015190505b61331c858261329e565b865550613384565b601f19841661333286612fd5565b60005b8281101561335a57848901518255600182019150602085019450602081019050613335565b868310156133775784890151613373601f891682613280565b8355505b6001600288020188555050505b505050505050565b6000815461339981612dd6565b6133a38186612e07565b945060018216600081146133be57600181146133d357613406565b60ff1983168652811515820286019350613406565b6133dc85612fd5565b60005b838110156133fe578154818901526001820191506020810190506133df565b838801955050505b50505092915050565b600061341b828461338c565b915081905092915050565b60008154905061343581612dd6565b9050919050565b60008190508160005260206000209050919050565b81810361345f575050613537565b61346882613426565b67ffffffffffffffff81111561348157613480612579565b5b61348b8254612dd6565b61349682828561322d565b6000601f8311600181146134c557600084156134b3578287015490505b6134bd858261329e565b865550613530565b601f1984166134d38761343c565b96506134de86612fd5565b60005b82811015613506578489015482556001820191506001850194506020810190506134e1565b86831015613523578489015461351f601f891682613280565b8355505b6001600288020188555050505b5050505050505b565b600060a08201905081810360008301526135538188612acd565b90506135626020830187612fc6565b8181036040830152613574818661309f565b90506135836060830185612a92565b6135906080830184612a92565b9695505050505050565b7f41756374696f6e206e6f742073746172746564206f7220616c7265616479206560008201527f6e64656400000000000000000000000000000000000000000000000000000000602082015250565b60006135f6602483612abc565b91506136018261359a565b604082019050919050565b60006020820190508181036000830152613625816135e9565b9050919050565b7f4269642076616c7565206973206c657373207468616e2074686520686967686560008201527f7374206269640000000000000000000000000000000000000000000000000000602082015250565b6000613688602683612abc565b91506136938261362c565b604082019050919050565b600060208201905081810360008301526136b78161367b565b9050919050565b7f596f7520617265206e6f74207468652068696768657374206269646465720000600082015250565b60006136f4601e83612abc565b91506136ff826136be565b602082019050919050565b60006020820190508181036000830152613723816136e7565b9050919050565b7f41756374696f6e2068617320656e646564000000000000000000000000000000600082015250565b6000613760601183612abc565b915061376b8261372a565b602082019050919050565b6000602082019050818103600083015261378f81613753565b9050919050565b7f41756374696f6e20686173206e6f7420656e6465640000000000000000000000600082015250565b60006137cc601583612abc565b91506137d782613796565b602082019050919050565b600060208201905081810360008301526137fb816137bf565b9050919050565b600061380e8385612e07565b935061381b838584612625565b82840190509392505050565b6000613834828486613802565b91508190509392505050565b600082905092915050565b6138558383613840565b67ffffffffffffffff81111561386e5761386d612579565b5b6138788254612dd6565b61388382828561322d565b6000601f8311600181146138b257600084156138a0578287013590505b6138aa858261329e565b865550613912565b601f1984166138c086612fd5565b60005b828110156138e8578489013582556001820191506020850194506020810190506138c3565b868310156139055784890135613901601f891682613280565b8355505b6001600288020188555050505b50505050505050565b6000613926826126ed565b9150613931836126ed565b925082820390508181111561394957613948612e5a565b5b9291505056fea264697066735822122084d92a3159600b2c4a002a3d06dc97f74d638c595b83f6276827b59b403dd8a964736f6c63430008120033",
  "immutableReferences": {},
  "source": "// SPDX-License-Identifier: MIT\npragma solidity ^0.8.4;\n// import \"@openzeppelin/contracts/access/Ownable.sol\";\n// import \"@openzeppelin/contracts/utils/Strings.sol\";\n\n/*\n1. Owner lists the product\n2. Owner begins the auction\n3. Bidders bid on the product\n    a. Bidders can see the current highest bid, previous bids\n    b. Bidder bids with money on top of her previous bid\n        i. Bid validation (value, time, current highest bid)\n        ii. Previous highest bidder withdraw enabled\n    c. Bidder can withdraw her bid (if she is not the highest bidder)\n4. Auction time ends\n5. Winner approves the product and then the contract pays the owner\n6. Unsuccesful bids can still be withdrawn\n*/\n\ncontract Auction {\n\n    struct product {\n        string product_name;\n        uint256 base_price;\n    }\n\n    struct bid {\n        uint256 bid_value;\n        uint256 bid_time;\n        address payable bidder;\n    }\n\n    struct auction {\n        string auction_id;\n        uint256 internal_id;\n        product listed_product;\n        bool started;\n        uint256 auction_time;\n        uint256 end_time;\n        address payable owner;\n        bid highest_bid;\n        bid[] bids;\n        bool ended;\n    }\n\n    mapping(string => mapping(address => uint256)) public withdrawals;\n\n    mapping(string => auction) public auctions;\n\n    string[] public auction_ids;\n    uint256 live_count = 0;\n    uint256 past_count = 0;\n\n    // constants\n    uint256 page_limit = 12;\n\n    // events\n    event RevertMessage(string _message);\n    event AuctionAlreadyAdded(string _auction_id, address _owner, product _product);\n    event AuctionStarted(string _auction_id, address _owner, product _product, uint256 _starting_time, uint256 _auction_time);\n    \n    // function to create an auction\n    function createAuction (string memory _auction_id, string memory _product_name, uint256 _base_price, uint256 _auction_time) public {\n        if (auctions[_auction_id].owner != address(0)) {\n            emit AuctionAlreadyAdded(_auction_id, auctions[_auction_id].owner, auctions[_auction_id].listed_product);\n            revert();\n        }\n\n        auctions[_auction_id].auction_id = _auction_id;\n        auctions[_auction_id].internal_id = auction_ids.length;\n        auctions[_auction_id].listed_product.product_name = _product_name;\n        auctions[_auction_id].listed_product.base_price = _base_price * 10**15;\n        auctions[_auction_id].started = false;\n        auctions[_auction_id].auction_time = _auction_time;\n        auctions[_auction_id].owner = payable(msg.sender);\n        bid memory empty_bid = bid(0, 0, payable (address(0)));\n        auctions[_auction_id].highest_bid = empty_bid;\n        auctions[_auction_id].ended = false;\n\n        auction_ids.push(_auction_id);\n    }\n\n    function startAuction (string memory _auction_id) public {\n        if (auctions[_auction_id].owner != msg.sender || auctions[_auction_id].started == true) {\n            revert();\n        }\n\n        auctions[_auction_id].started = true;\n        auctions[_auction_id].end_time = block.timestamp + auctions[_auction_id].auction_time;\n        \n        auctions[_auction_id].internal_id = live_count + past_count;\n        auctions[auction_ids[live_count + past_count]].internal_id = auctions[_auction_id].internal_id;\n\n        auction_ids[auctions[_auction_id].internal_id] = auction_ids[live_count + past_count];\n        auction_ids[live_count + past_count] = _auction_id;\n        live_count += 1;\n\n        emit AuctionStarted(_auction_id, auctions[_auction_id].owner, auctions[_auction_id].listed_product, block.timestamp, auctions[_auction_id].auction_time);\n    }\n\n    function makeBid (string memory _auction_id) external payable {\n\n        if (block.timestamp > auctions[_auction_id].end_time) {\n            auctions[_auction_id].ended = true;\n        }\n\n        if (auctions[_auction_id].started == false || auctions[_auction_id].ended == true) {\n            emit RevertMessage(\"Auction not started or already ended\");\n            revert();\n        }\n\n        uint256 bid_value = msg.value + withdrawals[_auction_id][msg.sender];\n\n        if ((auctions[_auction_id].highest_bid.bid_value == 0 && bid_value < auctions[_auction_id].listed_product.base_price) || bid_value < auctions[_auction_id].highest_bid.bid_value) {\n            emit RevertMessage(\"Bid value is less than the highest bid\");\n            revert();\n        }\n\n        if (auctions[_auction_id].highest_bid.bidder != address(0)) {\n            withdrawals[_auction_id][auctions[_auction_id].highest_bid.bidder] += auctions[_auction_id].highest_bid.bid_value;\n        }\n\n        bid memory new_bid = bid(bid_value, block.timestamp, payable (msg.sender));\n        auctions[_auction_id].highest_bid = new_bid;\n        auctions[_auction_id].bids.push(new_bid);\n\n    }\n\n    function withdrawBid (string memory _auction_id) external {\n\n        uint256 amount = withdrawals[_auction_id][msg.sender];\n        if (auctions[_auction_id].highest_bid.bidder == msg.sender) {\n            revert();\n        }\n\n        if (amount == 0) {\n            revert();\n        }\n\n        withdrawals[_auction_id][msg.sender] = 0;\n        if (!payable(msg.sender).send(amount)) {\n            withdrawals[_auction_id][msg.sender] = amount;\n        }\n    }\n\n    function endAuction (string calldata _auction_id) public {\n        if (auctions[_auction_id].owner != msg.sender || auctions[_auction_id].ended == true || auctions[_auction_id].end_time < block.timestamp) {\n            revert();\n        }\n\n        auctions[_auction_id].ended = true;\n        auctions[_auction_id].internal_id = past_count;\n        auctions[auction_ids[past_count]].internal_id = auctions[_auction_id].internal_id;\n\n        auction_ids[auctions[_auction_id].internal_id] = auction_ids[past_count];\n        auction_ids[past_count] = _auction_id;\n        past_count += 1;\n        live_count -= 1;\n\n    }\n\n    function approveProduct (string memory _auction_id) external {\n        if (auctions[_auction_id].highest_bid.bidder != msg.sender) {\n            emit RevertMessage(\"You are not the highest bidder\");\n            revert();\n        }\n\n        if (block.timestamp > auctions[_auction_id].end_time) {\n            emit RevertMessage(\"Auction has ended\");\n            auctions[_auction_id].ended = true;\n        }\n\n        if (auctions[_auction_id].ended == false) {\n            emit RevertMessage(\"Auction has not ended\");\n            revert();\n        }\n\n        auctions[_auction_id].owner.transfer(auctions[_auction_id].highest_bid.bid_value);\n        // if (!payable(auctions[_auction_id].owner).send(auctions[_auction_id].highest_bid)) {\n        //     emit RevertMessage(\"Owner Transfer failed\");\n        //     revert();\n        // }\n    }\n\n\n    // utility functions\n    function getAuctionDetails (string memory _auction_id) public view returns (auction memory) {\n        \n        return auctions[_auction_id];\n    }\n\n    function getAuctionIds () public view returns (string[] memory) {\n        return auction_ids;\n    }\n\n    function getPastIds (uint256 page_id) public view returns (string[] memory) {\n        string[] memory _ret = new string[] (page_limit);\n        uint256 page_base = page_limit * page_id;\n\n        for (uint256 id=0; id<page_limit; id++) {\n            if (page_base + id >= past_count) break ;\n\n            _ret[id] = auction_ids[page_base + id];\n        }\n\n        return _ret;\n    }\n\n    function getLiveIds (uint256 page_id) public view returns (string[] memory) {\n        string[] memory _ret = new string[] (page_limit);\n        uint256 page_base = page_limit * page_id;\n\n        for (uint256 id=0; id<page_limit; id++) {\n            if (page_base + id >= live_count) break ;\n            \n            _ret[id] = auction_ids[past_count + page_base + id];\n        }\n\n        return _ret;\n    }\n\n    function getUpcomingIds (uint256 page_id) public view returns (string[] memory) {\n        string[] memory _ret = new string[] (page_limit);\n        uint256 page_base = page_limit * page_id;\n\n        for (uint256 id=0; id<page_limit; id++) {\n            if (past_count + live_count + page_base + id >= auction_ids.length) break ;\n            \n            _ret[id] = auction_ids[past_count + live_count + page_base + id];\n        }\n\n        return _ret;\n    }\n\n    function getContractBalance () public view returns (uint256) {\n        return address(this).balance;\n    }\n\n    \n}",
  "sourcePath": "/home/dev/Documents/Local_projects/auction/truffle/contracts/Auctions.sol",
  "compiler": {
    "name": "solc",
    "version": "0.8.18+commit.87f61d96.Emscripten.clang"
  },
  "schemaVersion": "3.4.14",
  "updatedAt": "2023-07-16T10:50:38.162Z",
  "networkType": "ethereum",
  "devdoc": {
    "kind": "dev",
    "methods": {},
    "version": 1
  },
  "userdoc": {
    "kind": "user",
    "methods": {},
    "version": 1
  }
}